{
  "_format": "hh-sol-artifact-1",
  "contractName": "TalentirRoyalties",
  "sourceName": "contracts/TalentirRoyalties.sol",
  "abi": [
    {
      "inputs": [
        {
          "internalType": "uint256",
          "name": "tokenId",
          "type": "uint256"
        },
        {
          "internalType": "uint256",
          "name": "value",
          "type": "uint256"
        }
      ],
      "name": "royaltyInfo",
      "outputs": [
        {
          "internalType": "address",
          "name": "receiver",
          "type": "address"
        },
        {
          "internalType": "uint256",
          "name": "royaltyAmount",
          "type": "uint256"
        }
      ],
      "stateMutability": "view",
      "type": "function"
    },
    {
      "inputs": [
        {
          "internalType": "bytes4",
          "name": "interfaceId",
          "type": "bytes4"
        }
      ],
      "name": "supportsInterface",
      "outputs": [
        {
          "internalType": "bool",
          "name": "",
          "type": "bool"
        }
      ],
      "stateMutability": "view",
      "type": "function"
    },
    {
      "inputs": [
        {
          "internalType": "uint256",
          "name": "tokenId",
          "type": "uint256"
        },
        {
          "internalType": "address",
          "name": "newRoyaltyReceiver",
          "type": "address"
        }
      ],
      "name": "updateRoyaltyReceiver",
      "outputs": [],
      "stateMutability": "nonpayable",
      "type": "function"
    }
  ],
  "bytecode": "0x608060405234801561001057600080fd5b5061034c806100206000396000f3fe608060405234801561001057600080fd5b50600436106100415760003560e01c806301ffc9a7146100465780632a55205a1461006e578063354c85aa146100a0575b600080fd5b610059610054366004610241565b6100b5565b60405190151581526020015b60405180910390f35b61008161007c3660046102aa565b6100ec565b604080516001600160a01b039093168352602083019190915201610065565b6100b36100ae366004610270565b61019c565b005b60006001600160e01b0319821663152a902d60e11b14806100e657506301ffc9a760e01b6001600160e01b03198316145b92915050565b60008281526020819052604081205481906001600160a01b03166101625760405162461bcd60e51b815260206004820152602260248201527f4e6f20726f79616c747920696e666f20666f756e6420666f7220616464726573604482015261399760f11b60648201526084015b60405180910390fd5b6000848152602081905260409020546001600160a01b031691506064610189600a856102eb565b61019391906102cb565b90509250929050565b6000828152602081905260409020546001600160a01b03163381146102155760405162461bcd60e51b815260206004820152602960248201527f4f6e6c792063757272656e7420726f79616c747920726563656976657220636160448201526837103ab83230ba329760b91b6064820152608401610159565b600083815260208190526040902080546001600160a01b0319166001600160a01b038416179055505050565b600060208284031215610252578081fd5b81356001600160e01b031981168114610269578182fd5b9392505050565b60008060408385031215610282578081fd5b8235915060208301356001600160a01b038116811461029f578182fd5b809150509250929050565b600080604083850312156102bc578182fd5b50508035926020909101359150565b6000826102e657634e487b7160e01b81526012600452602481fd5b500490565b600081600019048311821515161561031157634e487b7160e01b81526011600452602481fd5b50029056fea26469706673582212205f599ca06b92a058403ddd7e4159092632f428a5dfb54fc7a961896d6b948fd164736f6c63430008040033",
  "linkReferences": {},
  "deployedLinkReferences": {}
}