{
  "_format": "hh-sol-artifact-1",
  "contractName": "TalentirTokenV2",
  "sourceName": "contracts/talentir-token-v2.sol",
  "abi": [
    {
      "inputs": [],
      "stateMutability": "nonpayable",
      "type": "constructor"
    },
    {
      "inputs": [],
      "name": "AccessControlBadConfirmation",
      "type": "error"
    },
    {
      "inputs": [
        {
          "internalType": "address",
          "name": "account",
          "type": "address"
        },
        {
          "internalType": "bytes32",
          "name": "neededRole",
          "type": "bytes32"
        }
      ],
      "name": "AccessControlUnauthorizedAccount",
      "type": "error"
    },
    {
      "inputs": [
        {
          "internalType": "address",
          "name": "sender",
          "type": "address"
        },
        {
          "internalType": "uint256",
          "name": "balance",
          "type": "uint256"
        },
        {
          "internalType": "uint256",
          "name": "needed",
          "type": "uint256"
        },
        {
          "internalType": "uint256",
          "name": "tokenId",
          "type": "uint256"
        }
      ],
      "name": "ERC1155InsufficientBalance",
      "type": "error"
    },
    {
      "inputs": [
        {
          "internalType": "address",
          "name": "approver",
          "type": "address"
        }
      ],
      "name": "ERC1155InvalidApprover",
      "type": "error"
    },
    {
      "inputs": [
        {
          "internalType": "uint256",
          "name": "idsLength",
          "type": "uint256"
        },
        {
          "internalType": "uint256",
          "name": "valuesLength",
          "type": "uint256"
        }
      ],
      "name": "ERC1155InvalidArrayLength",
      "type": "error"
    },
    {
      "inputs": [
        {
          "internalType": "address",
          "name": "operator",
          "type": "address"
        }
      ],
      "name": "ERC1155InvalidOperator",
      "type": "error"
    },
    {
      "inputs": [
        {
          "internalType": "address",
          "name": "receiver",
          "type": "address"
        }
      ],
      "name": "ERC1155InvalidReceiver",
      "type": "error"
    },
    {
      "inputs": [
        {
          "internalType": "address",
          "name": "sender",
          "type": "address"
        }
      ],
      "name": "ERC1155InvalidSender",
      "type": "error"
    },
    {
      "inputs": [
        {
          "internalType": "address",
          "name": "operator",
          "type": "address"
        },
        {
          "internalType": "address",
          "name": "owner",
          "type": "address"
        }
      ],
      "name": "ERC1155MissingApprovalForAll",
      "type": "error"
    },
    {
      "inputs": [],
      "name": "EnforcedPause",
      "type": "error"
    },
    {
      "inputs": [],
      "name": "ExpectedPause",
      "type": "error"
    },
    {
      "inputs": [],
      "name": "InvalidInitialization",
      "type": "error"
    },
    {
      "inputs": [],
      "name": "NotInitializing",
      "type": "error"
    },
    {
      "anonymous": false,
      "inputs": [
        {
          "indexed": true,
          "internalType": "address",
          "name": "account",
          "type": "address"
        },
        {
          "indexed": true,
          "internalType": "address",
          "name": "operator",
          "type": "address"
        },
        {
          "indexed": false,
          "internalType": "bool",
          "name": "approved",
          "type": "bool"
        }
      ],
      "name": "ApprovalForAll",
      "type": "event"
    },
    {
      "anonymous": false,
      "inputs": [
        {
          "indexed": false,
          "internalType": "uint64",
          "name": "version",
          "type": "uint64"
        }
      ],
      "name": "Initialized",
      "type": "event"
    },
    {
      "anonymous": false,
      "inputs": [
        {
          "indexed": false,
          "internalType": "address",
          "name": "account",
          "type": "address"
        }
      ],
      "name": "Paused",
      "type": "event"
    },
    {
      "anonymous": false,
      "inputs": [
        {
          "indexed": true,
          "internalType": "bytes32",
          "name": "role",
          "type": "bytes32"
        },
        {
          "indexed": true,
          "internalType": "bytes32",
          "name": "previousAdminRole",
          "type": "bytes32"
        },
        {
          "indexed": true,
          "internalType": "bytes32",
          "name": "newAdminRole",
          "type": "bytes32"
        }
      ],
      "name": "RoleAdminChanged",
      "type": "event"
    },
    {
      "anonymous": false,
      "inputs": [
        {
          "indexed": true,
          "internalType": "bytes32",
          "name": "role",
          "type": "bytes32"
        },
        {
          "indexed": true,
          "internalType": "address",
          "name": "account",
          "type": "address"
        },
        {
          "indexed": true,
          "internalType": "address",
          "name": "sender",
          "type": "address"
        }
      ],
      "name": "RoleGranted",
      "type": "event"
    },
    {
      "anonymous": false,
      "inputs": [
        {
          "indexed": true,
          "internalType": "bytes32",
          "name": "role",
          "type": "bytes32"
        },
        {
          "indexed": true,
          "internalType": "address",
          "name": "account",
          "type": "address"
        },
        {
          "indexed": true,
          "internalType": "address",
          "name": "sender",
          "type": "address"
        }
      ],
      "name": "RoleRevoked",
      "type": "event"
    },
    {
      "anonymous": false,
      "inputs": [
        {
          "indexed": true,
          "internalType": "address",
          "name": "operator",
          "type": "address"
        },
        {
          "indexed": true,
          "internalType": "address",
          "name": "from",
          "type": "address"
        },
        {
          "indexed": true,
          "internalType": "address",
          "name": "to",
          "type": "address"
        },
        {
          "indexed": false,
          "internalType": "uint256[]",
          "name": "ids",
          "type": "uint256[]"
        },
        {
          "indexed": false,
          "internalType": "uint256[]",
          "name": "values",
          "type": "uint256[]"
        }
      ],
      "name": "TransferBatch",
      "type": "event"
    },
    {
      "anonymous": false,
      "inputs": [
        {
          "indexed": true,
          "internalType": "address",
          "name": "operator",
          "type": "address"
        },
        {
          "indexed": true,
          "internalType": "address",
          "name": "from",
          "type": "address"
        },
        {
          "indexed": true,
          "internalType": "address",
          "name": "to",
          "type": "address"
        },
        {
          "indexed": false,
          "internalType": "uint256",
          "name": "id",
          "type": "uint256"
        },
        {
          "indexed": false,
          "internalType": "uint256",
          "name": "value",
          "type": "uint256"
        }
      ],
      "name": "TransferSingle",
      "type": "event"
    },
    {
      "anonymous": false,
      "inputs": [
        {
          "indexed": false,
          "internalType": "string",
          "name": "value",
          "type": "string"
        },
        {
          "indexed": true,
          "internalType": "uint256",
          "name": "id",
          "type": "uint256"
        }
      ],
      "name": "URI",
      "type": "event"
    },
    {
      "anonymous": false,
      "inputs": [
        {
          "indexed": false,
          "internalType": "address",
          "name": "account",
          "type": "address"
        }
      ],
      "name": "Unpaused",
      "type": "event"
    },
    {
      "inputs": [],
      "name": "DEFAULT_ADMIN_ROLE",
      "outputs": [
        {
          "internalType": "bytes32",
          "name": "",
          "type": "bytes32"
        }
      ],
      "stateMutability": "view",
      "type": "function"
    },
    {
      "inputs": [],
      "name": "MINTER_ROLE",
      "outputs": [
        {
          "internalType": "bytes32",
          "name": "",
          "type": "bytes32"
        }
      ],
      "stateMutability": "view",
      "type": "function"
    },
    {
      "inputs": [
        {
          "internalType": "address",
          "name": "account",
          "type": "address"
        },
        {
          "internalType": "uint256",
          "name": "id",
          "type": "uint256"
        }
      ],
      "name": "balanceOf",
      "outputs": [
        {
          "internalType": "uint256",
          "name": "",
          "type": "uint256"
        }
      ],
      "stateMutability": "view",
      "type": "function"
    },
    {
      "inputs": [
        {
          "internalType": "address[]",
          "name": "accounts",
          "type": "address[]"
        },
        {
          "internalType": "uint256[]",
          "name": "ids",
          "type": "uint256[]"
        }
      ],
      "name": "balanceOfBatch",
      "outputs": [
        {
          "internalType": "uint256[]",
          "name": "",
          "type": "uint256[]"
        }
      ],
      "stateMutability": "view",
      "type": "function"
    },
    {
      "inputs": [
        {
          "internalType": "address",
          "name": "account",
          "type": "address"
        },
        {
          "internalType": "uint256",
          "name": "id",
          "type": "uint256"
        },
        {
          "internalType": "uint256",
          "name": "value",
          "type": "uint256"
        }
      ],
      "name": "burn",
      "outputs": [],
      "stateMutability": "nonpayable",
      "type": "function"
    },
    {
      "inputs": [
        {
          "internalType": "address",
          "name": "account",
          "type": "address"
        },
        {
          "internalType": "uint256[]",
          "name": "ids",
          "type": "uint256[]"
        },
        {
          "internalType": "uint256[]",
          "name": "values",
          "type": "uint256[]"
        }
      ],
      "name": "burnBatch",
      "outputs": [],
      "stateMutability": "nonpayable",
      "type": "function"
    },
    {
      "inputs": [
        {
          "internalType": "uint256",
          "name": "id",
          "type": "uint256"
        }
      ],
      "name": "exists",
      "outputs": [
        {
          "internalType": "bool",
          "name": "",
          "type": "bool"
        }
      ],
      "stateMutability": "view",
      "type": "function"
    },
    {
      "inputs": [
        {
          "internalType": "bytes32",
          "name": "role",
          "type": "bytes32"
        }
      ],
      "name": "getRoleAdmin",
      "outputs": [
        {
          "internalType": "bytes32",
          "name": "",
          "type": "bytes32"
        }
      ],
      "stateMutability": "view",
      "type": "function"
    },
    {
      "inputs": [
        {
          "internalType": "bytes32",
          "name": "role",
          "type": "bytes32"
        },
        {
          "internalType": "address",
          "name": "account",
          "type": "address"
        }
      ],
      "name": "grantRole",
      "outputs": [],
      "stateMutability": "nonpayable",
      "type": "function"
    },
    {
      "inputs": [
        {
          "internalType": "bytes32",
          "name": "role",
          "type": "bytes32"
        },
        {
          "internalType": "address",
          "name": "account",
          "type": "address"
        }
      ],
      "name": "hasRole",
      "outputs": [
        {
          "internalType": "bool",
          "name": "",
          "type": "bool"
        }
      ],
      "stateMutability": "view",
      "type": "function"
    },
    {
      "inputs": [
        {
          "internalType": "address",
          "name": "defaultAdmin",
          "type": "address"
        },
        {
          "internalType": "address",
          "name": "minter",
          "type": "address"
        }
      ],
      "name": "initialize",
      "outputs": [],
      "stateMutability": "nonpayable",
      "type": "function"
    },
    {
      "inputs": [
        {
          "internalType": "address",
          "name": "account",
          "type": "address"
        },
        {
          "internalType": "address",
          "name": "operator",
          "type": "address"
        }
      ],
      "name": "isApprovedForAll",
      "outputs": [
        {
          "internalType": "bool",
          "name": "",
          "type": "bool"
        }
      ],
      "stateMutability": "view",
      "type": "function"
    },
    {
      "inputs": [
        {
          "internalType": "address",
          "name": "account",
          "type": "address"
        },
        {
          "internalType": "uint256",
          "name": "id",
          "type": "uint256"
        },
        {
          "internalType": "bytes",
          "name": "data",
          "type": "bytes"
        }
      ],
      "name": "mint",
      "outputs": [],
      "stateMutability": "nonpayable",
      "type": "function"
    },
    {
      "inputs": [],
      "name": "pause",
      "outputs": [],
      "stateMutability": "nonpayable",
      "type": "function"
    },
    {
      "inputs": [],
      "name": "paused",
      "outputs": [
        {
          "internalType": "bool",
          "name": "",
          "type": "bool"
        }
      ],
      "stateMutability": "view",
      "type": "function"
    },
    {
      "inputs": [
        {
          "internalType": "bytes32",
          "name": "role",
          "type": "bytes32"
        },
        {
          "internalType": "address",
          "name": "callerConfirmation",
          "type": "address"
        }
      ],
      "name": "renounceRole",
      "outputs": [],
      "stateMutability": "nonpayable",
      "type": "function"
    },
    {
      "inputs": [
        {
          "internalType": "bytes32",
          "name": "role",
          "type": "bytes32"
        },
        {
          "internalType": "address",
          "name": "account",
          "type": "address"
        }
      ],
      "name": "revokeRole",
      "outputs": [],
      "stateMutability": "nonpayable",
      "type": "function"
    },
    {
      "inputs": [
        {
          "internalType": "address",
          "name": "from",
          "type": "address"
        },
        {
          "internalType": "address",
          "name": "to",
          "type": "address"
        },
        {
          "internalType": "uint256[]",
          "name": "ids",
          "type": "uint256[]"
        },
        {
          "internalType": "uint256[]",
          "name": "values",
          "type": "uint256[]"
        },
        {
          "internalType": "bytes",
          "name": "data",
          "type": "bytes"
        }
      ],
      "name": "safeBatchTransferFrom",
      "outputs": [],
      "stateMutability": "nonpayable",
      "type": "function"
    },
    {
      "inputs": [
        {
          "internalType": "address",
          "name": "from",
          "type": "address"
        },
        {
          "internalType": "address",
          "name": "to",
          "type": "address"
        },
        {
          "internalType": "uint256",
          "name": "id",
          "type": "uint256"
        },
        {
          "internalType": "uint256",
          "name": "value",
          "type": "uint256"
        },
        {
          "internalType": "bytes",
          "name": "data",
          "type": "bytes"
        }
      ],
      "name": "safeTransferFrom",
      "outputs": [],
      "stateMutability": "nonpayable",
      "type": "function"
    },
    {
      "inputs": [
        {
          "internalType": "address",
          "name": "operator",
          "type": "address"
        },
        {
          "internalType": "bool",
          "name": "approved",
          "type": "bool"
        }
      ],
      "name": "setApprovalForAll",
      "outputs": [],
      "stateMutability": "nonpayable",
      "type": "function"
    },
    {
      "inputs": [
        {
          "internalType": "string",
          "name": "newuri",
          "type": "string"
        }
      ],
      "name": "setURI",
      "outputs": [],
      "stateMutability": "nonpayable",
      "type": "function"
    },
    {
      "inputs": [
        {
          "internalType": "bytes4",
          "name": "interfaceId",
          "type": "bytes4"
        }
      ],
      "name": "supportsInterface",
      "outputs": [
        {
          "internalType": "bool",
          "name": "",
          "type": "bool"
        }
      ],
      "stateMutability": "view",
      "type": "function"
    },
    {
      "inputs": [],
      "name": "totalSupply",
      "outputs": [
        {
          "internalType": "uint256",
          "name": "",
          "type": "uint256"
        }
      ],
      "stateMutability": "view",
      "type": "function"
    },
    {
      "inputs": [
        {
          "internalType": "uint256",
          "name": "id",
          "type": "uint256"
        }
      ],
      "name": "totalSupply",
      "outputs": [
        {
          "internalType": "uint256",
          "name": "",
          "type": "uint256"
        }
      ],
      "stateMutability": "view",
      "type": "function"
    },
    {
      "inputs": [],
      "name": "unpause",
      "outputs": [],
      "stateMutability": "nonpayable",
      "type": "function"
    },
    {
      "inputs": [
        {
          "internalType": "uint256",
          "name": "",
          "type": "uint256"
        }
      ],
      "name": "uri",
      "outputs": [
        {
          "internalType": "string",
          "name": "",
          "type": "string"
        }
      ],
      "stateMutability": "view",
      "type": "function"
    }
  ],
  "bytecode": "0x60806040523480156200001157600080fd5b50620000226200002860201b60201c565b6200019c565b60006200003a6200013260201b60201c565b90508060000160089054906101000a900460ff161562000086576040517ff92ee8a900000000000000000000000000000000000000000000000000000000815260040160405180910390fd5b67ffffffffffffffff80168160000160009054906101000a900467ffffffffffffffff1667ffffffffffffffff16146200012f5767ffffffffffffffff8160000160006101000a81548167ffffffffffffffff021916908367ffffffffffffffff1602179055507fc7f505b2f371ae2175ee4913f4499e1f2633a7b5936321eed1cdaeb6115181d267ffffffffffffffff6040516200012691906200017f565b60405180910390a15b50565b60007ff0c57e16840df040f15088dc2f81fe391c3923bec73e23a9662efc9c229c6a00905090565b600067ffffffffffffffff82169050919050565b62000179816200015a565b82525050565b60006020820190506200019660008301846200016e565b92915050565b61393b80620001ac6000396000f3fe608060405234801561001057600080fd5b506004361061018d5760003560e01c80635c975abb116100de578063a22cb46511610097578063d547741f11610071578063d547741f1461047e578063e985e9c51461049a578063f242432a146104ca578063f5298aca146104e65761018d565b8063a22cb46514610414578063bd85b03914610430578063d5391393146104605761018d565b80635c975abb146103665780636b20c454146103845780638456cb59146103a057806391d14854146103aa57806394d008ef146103da578063a217fddf146103f65761018d565b80632eb2c2d61161014b5780633f4ba83a116101255780633f4ba83a146102e0578063485cc955146102ea5780634e1273f4146103065780634f558e79146103365761018d565b80632eb2c2d61461028c5780632f2ff15d146102a857806336568abe146102c45761018d565b8062fdd58e1461019257806301ffc9a7146101c257806302fe5305146101f25780630e89341c1461020e57806318160ddd1461023e578063248a9ca31461025c575b600080fd5b6101ac60048036038101906101a79190612713565b610502565b6040516101b99190612762565b60405180910390f35b6101dc60048036038101906101d791906127d5565b61056b565b6040516101e9919061281d565b60405180910390f35b61020c6004803603810190610207919061297e565b61057d565b005b610228600480360381019061022391906129c7565b610597565b6040516102359190612a73565b60405180910390f35b61024661063a565b6040516102539190612762565b60405180910390f35b61027660048036038101906102719190612acb565b610652565b6040516102839190612b07565b60405180910390f35b6102a660048036038101906102a19190612c8b565b610680565b005b6102c260048036038101906102bd9190612d5a565b610728565b005b6102de60048036038101906102d99190612d5a565b61074a565b005b6102e86107c5565b005b61030460048036038101906102ff9190612d9a565b6107dd565b005b610320600480360381019061031b9190612e9d565b6109fb565b60405161032d9190612fd3565b60405180910390f35b610350600480360381019061034b91906129c7565b610b04565b60405161035d919061281d565b60405180910390f35b61036e610b18565b60405161037b919061281d565b60405180910390f35b61039e60048036038101906103999190612ff5565b610b3d565b005b6103a8610be9565b005b6103c460048036038101906103bf9190612d5a565b610c01565b6040516103d1919061281d565b60405180910390f35b6103f460048036038101906103ef9190613080565b610c7a565b005b6103fe610d04565b60405161040b9190612b07565b60405180910390f35b61042e6004803603810190610429919061311b565b610d0b565b005b61044a600480360381019061044591906129c7565b610d21565b6040516104579190612762565b60405180910390f35b610468610d4c565b6040516104759190612b07565b60405180910390f35b61049860048036038101906104939190612d5a565b610d70565b005b6104b460048036038101906104af9190612d9a565b610d92565b6040516104c1919061281d565b60405180910390f35b6104e460048036038101906104df919061315b565b610e34565b005b61050060048036038101906104fb91906131f2565b610edc565b005b60008061050d610f88565b905080600001600084815260200190815260200160002060008573ffffffffffffffffffffffffffffffffffffffff1673ffffffffffffffffffffffffffffffffffffffff1681526020019081526020016000205491505092915050565b600061057682610fb0565b9050919050565b6000801b61058a8161102a565b6105938261103e565b5050565b606060006105a3610f88565b90508060020180546105b490613274565b80601f01602080910402602001604051908101604052809291908181526020018280546105e090613274565b801561062d5780601f106106025761010080835404028352916020019161062d565b820191906000526020600020905b81548152906001019060200180831161061057829003601f168201915b5050505050915050919050565b600080610645611060565b9050806001015491505090565b60008061065d611088565b905080600001600084815260200190815260200160002060010154915050919050565b600061068a6110b0565b90508073ffffffffffffffffffffffffffffffffffffffff168673ffffffffffffffffffffffffffffffffffffffff16141580156106cf57506106cd8682610d92565b155b156107135780866040517fe237d92200000000000000000000000000000000000000000000000000000000815260040161070a9291906132b4565b60405180910390fd5b61072086868686866110b8565b505050505050565b61073182610652565b61073a8161102a565b61074483836111b0565b50505050565b6107526110b0565b73ffffffffffffffffffffffffffffffffffffffff168173ffffffffffffffffffffffffffffffffffffffff16146107b6576040517f6697b23200000000000000000000000000000000000000000000000000000000815260040160405180910390fd5b6107c082826112b1565b505050565b6000801b6107d28161102a565b6107da6113b3565b50565b60006107e7611425565b905060008160000160089054906101000a900460ff1615905060008260000160009054906101000a900467ffffffffffffffff1690506000808267ffffffffffffffff161480156108355750825b9050600060018367ffffffffffffffff1614801561086a575060003073ffffffffffffffffffffffffffffffffffffffff163b145b905081158015610878575080155b156108af576040517ff92ee8a900000000000000000000000000000000000000000000000000000000815260040160405180910390fd5b60018560000160006101000a81548167ffffffffffffffff021916908367ffffffffffffffff16021790555083156108ff5760018560000160086101000a81548160ff0219169083151502179055505b61093d6040518060400160405280601e81526020017f68747470733a2f2f74616c656e7469722e636f6d2f6170692f746f6b656e000081525061144d565b610945611461565b61094d61146b565b61095561147d565b61095d611487565b61096a6000801b886111b0565b506109957f9f2df0fed2c77648de5860a4cc508cd0818c85b8b8a1ab4ceeef8d981c8956a6876111b0565b5083156109f25760008560000160086101000a81548160ff0219169083151502179055507fc7f505b2f371ae2175ee4913f4499e1f2633a7b5936321eed1cdaeb6115181d260016040516109e99190613336565b60405180910390a15b50505050505050565b60608151835114610a4757815183516040517f5b059991000000000000000000000000000000000000000000000000000000008152600401610a3e929190613351565b60405180910390fd5b6000835167ffffffffffffffff811115610a6457610a63612853565b5b604051908082528060200260200182016040528015610a925781602001602082028036833780820191505090505b50905060005b8451811015610af957610acf610ab7828761149190919063ffffffff16565b610aca83876114a590919063ffffffff16565b610502565b828281518110610ae257610ae161337a565b5b602002602001018181525050806001019050610a98565b508091505092915050565b600080610b1083610d21565b119050919050565b600080610b236114b9565b90508060000160009054906101000a900460ff1691505090565b610b456110b0565b73ffffffffffffffffffffffffffffffffffffffff168373ffffffffffffffffffffffffffffffffffffffff1614158015610b8e5750610b8c83610b876110b0565b610d92565b155b15610bd957610b9b6110b0565b836040517fe237d922000000000000000000000000000000000000000000000000000000008152600401610bd09291906132b4565b60405180910390fd5b610be48383836114e1565b505050565b6000801b610bf68161102a565b610bfe611575565b50565b600080610c0c611088565b905080600001600085815260200190815260200160002060000160008473ffffffffffffffffffffffffffffffffffffffff1673ffffffffffffffffffffffffffffffffffffffff16815260200190815260200160002060009054906101000a900460ff1691505092915050565b7f9f2df0fed2c77648de5860a4cc508cd0818c85b8b8a1ab4ceeef8d981c8956a6610ca48161102a565b6000610caf84610d21565b14610cef576040517f08c379a0000000000000000000000000000000000000000000000000000000008152600401610ce6906133f5565b60405180910390fd5b610cfe8484620f4240856115e7565b50505050565b6000801b81565b610d1d610d166110b0565b8383611680565b5050565b600080610d2c611060565b905080600001600084815260200190815260200160002054915050919050565b7f9f2df0fed2c77648de5860a4cc508cd0818c85b8b8a1ab4ceeef8d981c8956a681565b610d7982610652565b610d828161102a565b610d8c83836112b1565b50505050565b600080610d9d610f88565b90508060010160008573ffffffffffffffffffffffffffffffffffffffff1673ffffffffffffffffffffffffffffffffffffffff16815260200190815260200160002060008473ffffffffffffffffffffffffffffffffffffffff1673ffffffffffffffffffffffffffffffffffffffff16815260200190815260200160002060009054906101000a900460ff1691505092915050565b6000610e3e6110b0565b90508073ffffffffffffffffffffffffffffffffffffffff168673ffffffffffffffffffffffffffffffffffffffff1614158015610e835750610e818682610d92565b155b15610ec75780866040517fe237d922000000000000000000000000000000000000000000000000000000008152600401610ebe9291906132b4565b60405180910390fd5b610ed486868686866117ff565b505050505050565b610ee46110b0565b73ffffffffffffffffffffffffffffffffffffffff168373ffffffffffffffffffffffffffffffffffffffff1614158015610f2d5750610f2b83610f266110b0565b610d92565b155b15610f7857610f3a6110b0565b836040517fe237d922000000000000000000000000000000000000000000000000000000008152600401610f6f9291906132b4565b60405180910390fd5b610f8383838361190a565b505050565b60007f88be536d5240c274a3b1d3a1be54482fd9caa294f08c62a7cde569f49a3c4500905090565b60007f7965db0b000000000000000000000000000000000000000000000000000000007bffffffffffffffffffffffffffffffffffffffffffffffffffffffff1916827bffffffffffffffffffffffffffffffffffffffffffffffffffffffff191614806110235750611022826119b1565b5b9050919050565b61103b816110366110b0565b611a93565b50565b6000611048610f88565b90508181600201908161105b91906135b7565b505050565b60007f4a593662ee04d27b6a00ebb31be7fe0c102c2ade82a7c5d764f2df05dc4e2800905090565b60007f02dd7bc7dec4dceedda775e58dd541e08a116c6c53815c0bd028192f7b626800905090565b600033905090565b600073ffffffffffffffffffffffffffffffffffffffff168473ffffffffffffffffffffffffffffffffffffffff160361112a5760006040517f57f447ce0000000000000000000000000000000000000000000000000000000081526004016111219190613689565b60405180910390fd5b600073ffffffffffffffffffffffffffffffffffffffff168573ffffffffffffffffffffffffffffffffffffffff160361119c5760006040517f01a835140000000000000000000000000000000000000000000000000000000081526004016111939190613689565b60405180910390fd5b6111a98585858585611ae4565b5050505050565b6000806111bb611088565b90506111c78484610c01565b6112a557600181600001600086815260200190815260200160002060000160008573ffffffffffffffffffffffffffffffffffffffff1673ffffffffffffffffffffffffffffffffffffffff16815260200190815260200160002060006101000a81548160ff0219169083151502179055506112416110b0565b73ffffffffffffffffffffffffffffffffffffffff168373ffffffffffffffffffffffffffffffffffffffff16857f2f8788117e7eff1d82e926ec794901d17c78024a50270940304540a733656f0d60405160405180910390a460019150506112ab565b60009150505b92915050565b6000806112bc611088565b90506112c88484610c01565b156113a757600081600001600086815260200190815260200160002060000160008573ffffffffffffffffffffffffffffffffffffffff1673ffffffffffffffffffffffffffffffffffffffff16815260200190815260200160002060006101000a81548160ff0219169083151502179055506113436110b0565b73ffffffffffffffffffffffffffffffffffffffff168373ffffffffffffffffffffffffffffffffffffffff16857ff6391f5c32d9c69d2a47ea670b442974b53935d1edc7fd64eb21e047a839171b60405160405180910390a460019150506113ad565b60009150505b92915050565b6113bb611b96565b60006113c56114b9565b905060008160000160006101000a81548160ff0219169083151502179055507f5db9ee0a495bf2e6ff9c91a7834c1ba4fdd244a5e8aa4e537bd38aeae4b073aa61140d6110b0565b60405161141a9190613689565b60405180910390a150565b60007ff0c57e16840df040f15088dc2f81fe391c3923bec73e23a9662efc9c229c6a00905090565b611455611bd6565b61145e81611c16565b50565b611469611bd6565b565b611473611bd6565b61147b611c2a565b565b611485611bd6565b565b61148f611bd6565b565b600060208202602084010151905092915050565b600060208202602084010151905092915050565b60007fcd5ed15c6e187e77e9aee88184c21f4f2182ab5827cb3b7e07fbedcd63f03300905090565b600073ffffffffffffffffffffffffffffffffffffffff168373ffffffffffffffffffffffffffffffffffffffff16036115535760006040517f01a8351400000000000000000000000000000000000000000000000000000000815260040161154a9190613689565b60405180910390fd5b611570836000848460405180602001604052806000815250611ae4565b505050565b61157d611c5e565b60006115876114b9565b905060018160000160006101000a81548160ff0219169083151502179055507f62e78cea01bee320cd4e420270b5ea74000d11b0c9f74754ebdbfc544b05a2586115cf6110b0565b6040516115dc9190613689565b60405180910390a150565b600073ffffffffffffffffffffffffffffffffffffffff168473ffffffffffffffffffffffffffffffffffffffff16036116595760006040517f57f447ce0000000000000000000000000000000000000000000000000000000081526004016116509190613689565b60405180910390fd5b6000806116668585611c9f565b91509150611678600087848487611ae4565b505050505050565b600061168a610f88565b9050600073ffffffffffffffffffffffffffffffffffffffff168373ffffffffffffffffffffffffffffffffffffffff16036116fe5760006040517fced3e1000000000000000000000000000000000000000000000000000000000081526004016116f59190613689565b60405180910390fd5b818160010160008673ffffffffffffffffffffffffffffffffffffffff1673ffffffffffffffffffffffffffffffffffffffff16815260200190815260200160002060008573ffffffffffffffffffffffffffffffffffffffff1673ffffffffffffffffffffffffffffffffffffffff16815260200190815260200160002060006101000a81548160ff0219169083151502179055508273ffffffffffffffffffffffffffffffffffffffff168473ffffffffffffffffffffffffffffffffffffffff167f17307eab39ab6107e8899845ad3d59bd9653f200f220920489ca2b5937696c31846040516117f1919061281d565b60405180910390a350505050565b600073ffffffffffffffffffffffffffffffffffffffff168473ffffffffffffffffffffffffffffffffffffffff16036118715760006040517f57f447ce0000000000000000000000000000000000000000000000000000000081526004016118689190613689565b60405180910390fd5b600073ffffffffffffffffffffffffffffffffffffffff168573ffffffffffffffffffffffffffffffffffffffff16036118e35760006040517f01a835140000000000000000000000000000000000000000000000000000000081526004016118da9190613689565b60405180910390fd5b6000806118f08585611c9f565b915091506119018787848487611ae4565b50505050505050565b600073ffffffffffffffffffffffffffffffffffffffff168373ffffffffffffffffffffffffffffffffffffffff160361197c5760006040517f01a835140000000000000000000000000000000000000000000000000000000081526004016119739190613689565b60405180910390fd5b6000806119898484611c9f565b915091506119aa856000848460405180602001604052806000815250611ae4565b5050505050565b60007fd9b67a26000000000000000000000000000000000000000000000000000000007bffffffffffffffffffffffffffffffffffffffffffffffffffffffff1916827bffffffffffffffffffffffffffffffffffffffffffffffffffffffff19161480611a7c57507f0e89341c000000000000000000000000000000000000000000000000000000007bffffffffffffffffffffffffffffffffffffffffffffffffffffffff1916827bffffffffffffffffffffffffffffffffffffffffffffffffffffffff1916145b80611a8c5750611a8b82611ccf565b5b9050919050565b611a9d8282610c01565b611ae05780826040517fe2517d3f000000000000000000000000000000000000000000000000000000008152600401611ad79291906136a4565b60405180910390fd5b5050565b611af085858585611d39565b600073ffffffffffffffffffffffffffffffffffffffff168473ffffffffffffffffffffffffffffffffffffffff1614611b8f576000611b2e6110b0565b90506001845103611b7e576000611b4f6000866114a590919063ffffffff16565b90506000611b676000866114a590919063ffffffff16565b9050611b77838989858589611d4b565b5050611b8d565b611b8c818787878787611eff565b5b505b5050505050565b611b9e610b18565b611bd4576040517f8dfc202b00000000000000000000000000000000000000000000000000000000815260040160405180910390fd5b565b611bde6120b3565b611c14576040517fd7e6bcf800000000000000000000000000000000000000000000000000000000815260040160405180910390fd5b565b611c1e611bd6565b611c278161103e565b50565b611c32611bd6565b6000611c3c6114b9565b905060008160000160006101000a81548160ff02191690831515021790555050565b611c66610b18565b15611c9d576040517fd93c066500000000000000000000000000000000000000000000000000000000815260040160405180910390fd5b565b60608060405191506001825283602083015260408201905060018152826020820152604081016040529250929050565b60007f01ffc9a7000000000000000000000000000000000000000000000000000000007bffffffffffffffffffffffffffffffffffffffffffffffffffffffff1916827bffffffffffffffffffffffffffffffffffffffffffffffffffffffff1916149050919050565b611d45848484846120d3565b50505050565b60008473ffffffffffffffffffffffffffffffffffffffff163b1115611ef7578373ffffffffffffffffffffffffffffffffffffffff1663f23a6e6187878686866040518663ffffffff1660e01b8152600401611dac959493929190613722565b6020604051808303816000875af1925050508015611de857506040513d601f19601f82011682018060405250810190611de59190613791565b60015b611e6c573d8060008114611e18576040519150601f19603f3d011682016040523d82523d6000602084013e611e1d565b606091505b506000815103611e6457846040517f57f447ce000000000000000000000000000000000000000000000000000000008152600401611e5b9190613689565b60405180910390fd5b805181602001fd5b63f23a6e6160e01b7bffffffffffffffffffffffffffffffffffffffffffffffffffffffff1916817bffffffffffffffffffffffffffffffffffffffffffffffffffffffff191614611ef557846040517f57f447ce000000000000000000000000000000000000000000000000000000008152600401611eec9190613689565b60405180910390fd5b505b505050505050565b60008473ffffffffffffffffffffffffffffffffffffffff163b11156120ab578373ffffffffffffffffffffffffffffffffffffffff1663bc197c8187878686866040518663ffffffff1660e01b8152600401611f609594939291906137be565b6020604051808303816000875af1925050508015611f9c57506040513d601f19601f82011682018060405250810190611f999190613791565b60015b612020573d8060008114611fcc576040519150601f19603f3d011682016040523d82523d6000602084013e611fd1565b606091505b50600081510361201857846040517f57f447ce00000000000000000000000000000000000000000000000000000000815260040161200f9190613689565b60405180910390fd5b805181602001fd5b63bc197c8160e01b7bffffffffffffffffffffffffffffffffffffffffffffffffffffffff1916817bffffffffffffffffffffffffffffffffffffffffffffffffffffffff1916146120a957846040517f57f447ce0000000000000000000000000000000000000000000000000000000081526004016120a09190613689565b60405180910390fd5b505b505050505050565b60006120bd611425565b60000160089054906101000a900460ff16905090565b60006120dd611060565b90506120eb85858585612293565b600073ffffffffffffffffffffffffffffffffffffffff168573ffffffffffffffffffffffffffffffffffffffff16036121c9576000805b84518110156121ab5760008482815181106121415761214061337a565b5b60200260200101519050808460000160008885815181106121655761216461337a565b5b60200260200101518152602001908152602001600020600082825461218a9190613855565b92505081905550808361219d9190613855565b925050806001019050612123565b50808260010160008282546121c09190613855565b92505081905550505b600073ffffffffffffffffffffffffffffffffffffffff168473ffffffffffffffffffffffffffffffffffffffff160361228c576000805b845181101561227757600084828151811061221f5761221e61337a565b5b60200260200101519050808460000160008885815181106122435761224261337a565b5b6020026020010151815260200190815260200160002060008282540392505081905550808301925050806001019050612201565b50808260010160008282540392505081905550505b5050505050565b61229b611c5e565b6122a7848484846122ad565b50505050565b60006122b7610f88565b9050815183511461230357825182516040517f5b0599910000000000000000000000000000000000000000000000000000000081526004016122fa929190613351565b60405180910390fd5b600061230d6110b0565b905060005b845181101561252557600061233082876114a590919063ffffffff16565b9050600061234783876114a590919063ffffffff16565b9050600073ffffffffffffffffffffffffffffffffffffffff168973ffffffffffffffffffffffffffffffffffffffff161461247a57600085600001600084815260200190815260200160002060008b73ffffffffffffffffffffffffffffffffffffffff1673ffffffffffffffffffffffffffffffffffffffff1681526020019081526020016000205490508181101561241f57898183856040517f03dee4c50000000000000000000000000000000000000000000000000000000081526004016124169493929190613889565b60405180910390fd5b81810386600001600085815260200190815260200160002060008c73ffffffffffffffffffffffffffffffffffffffff1673ffffffffffffffffffffffffffffffffffffffff16815260200190815260200160002081905550505b600073ffffffffffffffffffffffffffffffffffffffff168873ffffffffffffffffffffffffffffffffffffffff1614612518578085600001600084815260200190815260200160002060008a73ffffffffffffffffffffffffffffffffffffffff1673ffffffffffffffffffffffffffffffffffffffff16815260200190815260200160002060008282546125109190613855565b925050819055505b5050806001019050612312565b5060018451036125e45760006125456000866114a590919063ffffffff16565b9050600061255d6000866114a590919063ffffffff16565b90508673ffffffffffffffffffffffffffffffffffffffff168873ffffffffffffffffffffffffffffffffffffffff168473ffffffffffffffffffffffffffffffffffffffff167fc3d58168c5ae7397731d063d5bbf3d657854427343f4c083240f7aacaa2d0f6285856040516125d5929190613351565b60405180910390a45050612663565b8473ffffffffffffffffffffffffffffffffffffffff168673ffffffffffffffffffffffffffffffffffffffff168273ffffffffffffffffffffffffffffffffffffffff167f4a39dc06d4c0dbc64b70af90fd698a233a518aa5d07e595d983b8c0526c8f7fb878760405161265a9291906138ce565b60405180910390a45b505050505050565b6000604051905090565b600080fd5b600080fd5b600073ffffffffffffffffffffffffffffffffffffffff82169050919050565b60006126aa8261267f565b9050919050565b6126ba8161269f565b81146126c557600080fd5b50565b6000813590506126d7816126b1565b92915050565b6000819050919050565b6126f0816126dd565b81146126fb57600080fd5b50565b60008135905061270d816126e7565b92915050565b6000806040838503121561272a57612729612675565b5b6000612738858286016126c8565b9250506020612749858286016126fe565b9150509250929050565b61275c816126dd565b82525050565b60006020820190506127776000830184612753565b92915050565b60007fffffffff0000000000000000000000000000000000000000000000000000000082169050919050565b6127b28161277d565b81146127bd57600080fd5b50565b6000813590506127cf816127a9565b92915050565b6000602082840312156127eb576127ea612675565b5b60006127f9848285016127c0565b91505092915050565b60008115159050919050565b61281781612802565b82525050565b6000602082019050612832600083018461280e565b92915050565b600080fd5b600080fd5b6000601f19601f8301169050919050565b7f4e487b7100000000000000000000000000000000000000000000000000000000600052604160045260246000fd5b61288b82612842565b810181811067ffffffffffffffff821117156128aa576128a9612853565b5b80604052505050565b60006128bd61266b565b90506128c98282612882565b919050565b600067ffffffffffffffff8211156128e9576128e8612853565b5b6128f282612842565b9050602081019050919050565b82818337600083830152505050565b600061292161291c846128ce565b6128b3565b90508281526020810184848401111561293d5761293c61283d565b5b6129488482856128ff565b509392505050565b600082601f83011261296557612964612838565b5b813561297584826020860161290e565b91505092915050565b60006020828403121561299457612993612675565b5b600082013567ffffffffffffffff8111156129b2576129b161267a565b5b6129be84828501612950565b91505092915050565b6000602082840312156129dd576129dc612675565b5b60006129eb848285016126fe565b91505092915050565b600081519050919050565b600082825260208201905092915050565b60005b83811015612a2e578082015181840152602081019050612a13565b60008484015250505050565b6000612a45826129f4565b612a4f81856129ff565b9350612a5f818560208601612a10565b612a6881612842565b840191505092915050565b60006020820190508181036000830152612a8d8184612a3a565b905092915050565b6000819050919050565b612aa881612a95565b8114612ab357600080fd5b50565b600081359050612ac581612a9f565b92915050565b600060208284031215612ae157612ae0612675565b5b6000612aef84828501612ab6565b91505092915050565b612b0181612a95565b82525050565b6000602082019050612b1c6000830184612af8565b92915050565b600067ffffffffffffffff821115612b3d57612b3c612853565b5b602082029050602081019050919050565b600080fd5b6000612b66612b6184612b22565b6128b3565b90508083825260208201905060208402830185811115612b8957612b88612b4e565b5b835b81811015612bb25780612b9e88826126fe565b845260208401935050602081019050612b8b565b5050509392505050565b600082601f830112612bd157612bd0612838565b5b8135612be1848260208601612b53565b91505092915050565b600067ffffffffffffffff821115612c0557612c04612853565b5b612c0e82612842565b9050602081019050919050565b6000612c2e612c2984612bea565b6128b3565b905082815260208101848484011115612c4a57612c4961283d565b5b612c558482856128ff565b509392505050565b600082601f830112612c7257612c71612838565b5b8135612c82848260208601612c1b565b91505092915050565b600080600080600060a08688031215612ca757612ca6612675565b5b6000612cb5888289016126c8565b9550506020612cc6888289016126c8565b945050604086013567ffffffffffffffff811115612ce757612ce661267a565b5b612cf388828901612bbc565b935050606086013567ffffffffffffffff811115612d1457612d1361267a565b5b612d2088828901612bbc565b925050608086013567ffffffffffffffff811115612d4157612d4061267a565b5b612d4d88828901612c5d565b9150509295509295909350565b60008060408385031215612d7157612d70612675565b5b6000612d7f85828601612ab6565b9250506020612d90858286016126c8565b9150509250929050565b60008060408385031215612db157612db0612675565b5b6000612dbf858286016126c8565b9250506020612dd0858286016126c8565b9150509250929050565b600067ffffffffffffffff821115612df557612df4612853565b5b602082029050602081019050919050565b6000612e19612e1484612dda565b6128b3565b90508083825260208201905060208402830185811115612e3c57612e3b612b4e565b5b835b81811015612e655780612e5188826126c8565b845260208401935050602081019050612e3e565b5050509392505050565b600082601f830112612e8457612e83612838565b5b8135612e94848260208601612e06565b91505092915050565b60008060408385031215612eb457612eb3612675565b5b600083013567ffffffffffffffff811115612ed257612ed161267a565b5b612ede85828601612e6f565b925050602083013567ffffffffffffffff811115612eff57612efe61267a565b5b612f0b85828601612bbc565b9150509250929050565b600081519050919050565b600082825260208201905092915050565b6000819050602082019050919050565b612f4a816126dd565b82525050565b6000612f5c8383612f41565b60208301905092915050565b6000602082019050919050565b6000612f8082612f15565b612f8a8185612f20565b9350612f9583612f31565b8060005b83811015612fc6578151612fad8882612f50565b9750612fb883612f68565b925050600181019050612f99565b5085935050505092915050565b60006020820190508181036000830152612fed8184612f75565b905092915050565b60008060006060848603121561300e5761300d612675565b5b600061301c868287016126c8565b935050602084013567ffffffffffffffff81111561303d5761303c61267a565b5b61304986828701612bbc565b925050604084013567ffffffffffffffff81111561306a5761306961267a565b5b61307686828701612bbc565b9150509250925092565b60008060006060848603121561309957613098612675565b5b60006130a7868287016126c8565b93505060206130b8868287016126fe565b925050604084013567ffffffffffffffff8111156130d9576130d861267a565b5b6130e586828701612c5d565b9150509250925092565b6130f881612802565b811461310357600080fd5b50565b600081359050613115816130ef565b92915050565b6000806040838503121561313257613131612675565b5b6000613140858286016126c8565b925050602061315185828601613106565b9150509250929050565b600080600080600060a0868803121561317757613176612675565b5b6000613185888289016126c8565b9550506020613196888289016126c8565b94505060406131a7888289016126fe565b93505060606131b8888289016126fe565b925050608086013567ffffffffffffffff8111156131d9576131d861267a565b5b6131e588828901612c5d565b9150509295509295909350565b60008060006060848603121561320b5761320a612675565b5b6000613219868287016126c8565b935050602061322a868287016126fe565b925050604061323b868287016126fe565b9150509250925092565b7f4e487b7100000000000000000000000000000000000000000000000000000000600052602260045260246000fd5b6000600282049050600182168061328c57607f821691505b60208210810361329f5761329e613245565b5b50919050565b6132ae8161269f565b82525050565b60006040820190506132c960008301856132a5565b6132d660208301846132a5565b9392505050565b6000819050919050565b600067ffffffffffffffff82169050919050565b6000819050919050565b600061332061331b613316846132dd565b6132fb565b6132e7565b9050919050565b61333081613305565b82525050565b600060208201905061334b6000830184613327565b92915050565b60006040820190506133666000830185612753565b6133736020830184612753565b9392505050565b7f4e487b7100000000000000000000000000000000000000000000000000000000600052603260045260246000fd5b7f546f6b656e20616c7265616479206d696e746564000000000000000000000000600082015250565b60006133df6014836129ff565b91506133ea826133a9565b602082019050919050565b6000602082019050818103600083015261340e816133d2565b9050919050565b60008190508160005260206000209050919050565b60006020601f8301049050919050565b600082821b905092915050565b6000600883026134777fffffffffffffffffffffffffffffffffffffffffffffffffffffffffffffffff8261343a565b613481868361343a565b95508019841693508086168417925050509392505050565b60006134b46134af6134aa846126dd565b6132fb565b6126dd565b9050919050565b6000819050919050565b6134ce83613499565b6134e26134da826134bb565b848454613447565b825550505050565b600090565b6134f76134ea565b6135028184846134c5565b505050565b5b818110156135265761351b6000826134ef565b600181019050613508565b5050565b601f82111561356b5761353c81613415565b6135458461342a565b81016020851015613554578190505b6135686135608561342a565b830182613507565b50505b505050565b600082821c905092915050565b600061358e60001984600802613570565b1980831691505092915050565b60006135a7838361357d565b9150826002028217905092915050565b6135c0826129f4565b67ffffffffffffffff8111156135d9576135d8612853565b5b6135e38254613274565b6135ee82828561352a565b600060209050601f831160018114613621576000841561360f578287015190505b613619858261359b565b865550613681565b601f19841661362f86613415565b60005b8281101561365757848901518255600182019150602085019450602081019050613632565b868310156136745784890151613670601f89168261357d565b8355505b6001600288020188555050505b505050505050565b600060208201905061369e60008301846132a5565b92915050565b60006040820190506136b960008301856132a5565b6136c66020830184612af8565b9392505050565b600081519050919050565b600082825260208201905092915050565b60006136f4826136cd565b6136fe81856136d8565b935061370e818560208601612a10565b61371781612842565b840191505092915050565b600060a08201905061373760008301886132a5565b61374460208301876132a5565b6137516040830186612753565b61375e6060830185612753565b818103608083015261377081846136e9565b90509695505050505050565b60008151905061378b816127a9565b92915050565b6000602082840312156137a7576137a6612675565b5b60006137b58482850161377c565b91505092915050565b600060a0820190506137d360008301886132a5565b6137e060208301876132a5565b81810360408301526137f28186612f75565b905081810360608301526138068185612f75565b9050818103608083015261381a81846136e9565b90509695505050505050565b7f4e487b7100000000000000000000000000000000000000000000000000000000600052601160045260246000fd5b6000613860826126dd565b915061386b836126dd565b925082820190508082111561388357613882613826565b5b92915050565b600060808201905061389e60008301876132a5565b6138ab6020830186612753565b6138b86040830185612753565b6138c56060830184612753565b95945050505050565b600060408201905081810360008301526138e88185612f75565b905081810360208301526138fc8184612f75565b9050939250505056fea264697066735822122005ccbf08f6ab97aa102f8ae5c089fc39d6f62efc44b2c2e1be950a4c4cf2128f64736f6c63430008180033",
  "linkReferences": {},
  "deployedLinkReferences": {}
}