{
  "_format": "hh-sol-artifact-1",
  "contractName": "TalentirTokenV2",
  "sourceName": "contracts/talentir-token-v2.sol",
  "abi": [
    {
      "inputs": [],
      "stateMutability": "nonpayable",
      "type": "constructor"
    },
    {
      "inputs": [],
      "name": "AccessControlBadConfirmation",
      "type": "error"
    },
    {
      "inputs": [
        {
          "internalType": "address",
          "name": "account",
          "type": "address"
        },
        {
          "internalType": "bytes32",
          "name": "neededRole",
          "type": "bytes32"
        }
      ],
      "name": "AccessControlUnauthorizedAccount",
      "type": "error"
    },
    {
      "inputs": [
        {
          "internalType": "address",
          "name": "sender",
          "type": "address"
        },
        {
          "internalType": "uint256",
          "name": "balance",
          "type": "uint256"
        },
        {
          "internalType": "uint256",
          "name": "needed",
          "type": "uint256"
        },
        {
          "internalType": "uint256",
          "name": "tokenId",
          "type": "uint256"
        }
      ],
      "name": "ERC1155InsufficientBalance",
      "type": "error"
    },
    {
      "inputs": [
        {
          "internalType": "address",
          "name": "approver",
          "type": "address"
        }
      ],
      "name": "ERC1155InvalidApprover",
      "type": "error"
    },
    {
      "inputs": [
        {
          "internalType": "uint256",
          "name": "idsLength",
          "type": "uint256"
        },
        {
          "internalType": "uint256",
          "name": "valuesLength",
          "type": "uint256"
        }
      ],
      "name": "ERC1155InvalidArrayLength",
      "type": "error"
    },
    {
      "inputs": [
        {
          "internalType": "address",
          "name": "operator",
          "type": "address"
        }
      ],
      "name": "ERC1155InvalidOperator",
      "type": "error"
    },
    {
      "inputs": [
        {
          "internalType": "address",
          "name": "receiver",
          "type": "address"
        }
      ],
      "name": "ERC1155InvalidReceiver",
      "type": "error"
    },
    {
      "inputs": [
        {
          "internalType": "address",
          "name": "sender",
          "type": "address"
        }
      ],
      "name": "ERC1155InvalidSender",
      "type": "error"
    },
    {
      "inputs": [
        {
          "internalType": "address",
          "name": "operator",
          "type": "address"
        },
        {
          "internalType": "address",
          "name": "owner",
          "type": "address"
        }
      ],
      "name": "ERC1155MissingApprovalForAll",
      "type": "error"
    },
    {
      "inputs": [],
      "name": "EnforcedPause",
      "type": "error"
    },
    {
      "inputs": [],
      "name": "ExpectedPause",
      "type": "error"
    },
    {
      "inputs": [],
      "name": "InvalidInitialization",
      "type": "error"
    },
    {
      "inputs": [],
      "name": "NotInitializing",
      "type": "error"
    },
    {
      "anonymous": false,
      "inputs": [
        {
          "indexed": true,
          "internalType": "address",
          "name": "account",
          "type": "address"
        },
        {
          "indexed": true,
          "internalType": "address",
          "name": "operator",
          "type": "address"
        },
        {
          "indexed": false,
          "internalType": "bool",
          "name": "approved",
          "type": "bool"
        }
      ],
      "name": "ApprovalForAll",
      "type": "event"
    },
    {
      "anonymous": false,
      "inputs": [
        {
          "indexed": false,
          "internalType": "uint64",
          "name": "version",
          "type": "uint64"
        }
      ],
      "name": "Initialized",
      "type": "event"
    },
    {
      "anonymous": false,
      "inputs": [
        {
          "indexed": false,
          "internalType": "address",
          "name": "account",
          "type": "address"
        }
      ],
      "name": "Paused",
      "type": "event"
    },
    {
      "anonymous": false,
      "inputs": [
        {
          "indexed": true,
          "internalType": "bytes32",
          "name": "role",
          "type": "bytes32"
        },
        {
          "indexed": true,
          "internalType": "bytes32",
          "name": "previousAdminRole",
          "type": "bytes32"
        },
        {
          "indexed": true,
          "internalType": "bytes32",
          "name": "newAdminRole",
          "type": "bytes32"
        }
      ],
      "name": "RoleAdminChanged",
      "type": "event"
    },
    {
      "anonymous": false,
      "inputs": [
        {
          "indexed": true,
          "internalType": "bytes32",
          "name": "role",
          "type": "bytes32"
        },
        {
          "indexed": true,
          "internalType": "address",
          "name": "account",
          "type": "address"
        },
        {
          "indexed": true,
          "internalType": "address",
          "name": "sender",
          "type": "address"
        }
      ],
      "name": "RoleGranted",
      "type": "event"
    },
    {
      "anonymous": false,
      "inputs": [
        {
          "indexed": true,
          "internalType": "bytes32",
          "name": "role",
          "type": "bytes32"
        },
        {
          "indexed": true,
          "internalType": "address",
          "name": "account",
          "type": "address"
        },
        {
          "indexed": true,
          "internalType": "address",
          "name": "sender",
          "type": "address"
        }
      ],
      "name": "RoleRevoked",
      "type": "event"
    },
    {
      "anonymous": false,
      "inputs": [
        {
          "indexed": true,
          "internalType": "address",
          "name": "operator",
          "type": "address"
        },
        {
          "indexed": true,
          "internalType": "address",
          "name": "from",
          "type": "address"
        },
        {
          "indexed": true,
          "internalType": "address",
          "name": "to",
          "type": "address"
        },
        {
          "indexed": false,
          "internalType": "uint256[]",
          "name": "ids",
          "type": "uint256[]"
        },
        {
          "indexed": false,
          "internalType": "uint256[]",
          "name": "values",
          "type": "uint256[]"
        }
      ],
      "name": "TransferBatch",
      "type": "event"
    },
    {
      "anonymous": false,
      "inputs": [
        {
          "indexed": true,
          "internalType": "address",
          "name": "operator",
          "type": "address"
        },
        {
          "indexed": true,
          "internalType": "address",
          "name": "from",
          "type": "address"
        },
        {
          "indexed": true,
          "internalType": "address",
          "name": "to",
          "type": "address"
        },
        {
          "indexed": false,
          "internalType": "uint256",
          "name": "id",
          "type": "uint256"
        },
        {
          "indexed": false,
          "internalType": "uint256",
          "name": "value",
          "type": "uint256"
        }
      ],
      "name": "TransferSingle",
      "type": "event"
    },
    {
      "anonymous": false,
      "inputs": [
        {
          "indexed": false,
          "internalType": "string",
          "name": "value",
          "type": "string"
        },
        {
          "indexed": true,
          "internalType": "uint256",
          "name": "id",
          "type": "uint256"
        }
      ],
      "name": "URI",
      "type": "event"
    },
    {
      "anonymous": false,
      "inputs": [
        {
          "indexed": false,
          "internalType": "address",
          "name": "account",
          "type": "address"
        }
      ],
      "name": "Unpaused",
      "type": "event"
    },
    {
      "inputs": [],
      "name": "DEFAULT_ADMIN_ROLE",
      "outputs": [
        {
          "internalType": "bytes32",
          "name": "",
          "type": "bytes32"
        }
      ],
      "stateMutability": "view",
      "type": "function"
    },
    {
      "inputs": [],
      "name": "MINTER_ROLE",
      "outputs": [
        {
          "internalType": "bytes32",
          "name": "",
          "type": "bytes32"
        }
      ],
      "stateMutability": "view",
      "type": "function"
    },
    {
      "inputs": [],
      "name": "TOKEN_FRACTIONS",
      "outputs": [
        {
          "internalType": "uint256",
          "name": "",
          "type": "uint256"
        }
      ],
      "stateMutability": "view",
      "type": "function"
    },
    {
      "inputs": [
        {
          "internalType": "address",
          "name": "account",
          "type": "address"
        },
        {
          "internalType": "uint256",
          "name": "id",
          "type": "uint256"
        }
      ],
      "name": "balanceOf",
      "outputs": [
        {
          "internalType": "uint256",
          "name": "",
          "type": "uint256"
        }
      ],
      "stateMutability": "view",
      "type": "function"
    },
    {
      "inputs": [
        {
          "internalType": "address[]",
          "name": "accounts",
          "type": "address[]"
        },
        {
          "internalType": "uint256[]",
          "name": "ids",
          "type": "uint256[]"
        }
      ],
      "name": "balanceOfBatch",
      "outputs": [
        {
          "internalType": "uint256[]",
          "name": "",
          "type": "uint256[]"
        }
      ],
      "stateMutability": "view",
      "type": "function"
    },
    {
      "inputs": [
        {
          "internalType": "address[]",
          "name": "accounts",
          "type": "address[]"
        },
        {
          "internalType": "uint256",
          "name": "tokenId",
          "type": "uint256"
        },
        {
          "internalType": "uint256[]",
          "name": "amounts",
          "type": "uint256[]"
        }
      ],
      "name": "batchMint",
      "outputs": [],
      "stateMutability": "nonpayable",
      "type": "function"
    },
    {
      "inputs": [
        {
          "internalType": "address[]",
          "name": "accounts",
          "type": "address[]"
        },
        {
          "internalType": "uint256",
          "name": "id",
          "type": "uint256"
        },
        {
          "internalType": "uint256[]",
          "name": "amounts",
          "type": "uint256[]"
        }
      ],
      "name": "burn",
      "outputs": [],
      "stateMutability": "nonpayable",
      "type": "function"
    },
    {
      "inputs": [
        {
          "internalType": "string",
          "name": "contentId",
          "type": "string"
        }
      ],
      "name": "contentIdToTokenId",
      "outputs": [
        {
          "internalType": "uint256",
          "name": "",
          "type": "uint256"
        }
      ],
      "stateMutability": "pure",
      "type": "function"
    },
    {
      "inputs": [
        {
          "internalType": "uint256",
          "name": "id",
          "type": "uint256"
        }
      ],
      "name": "exists",
      "outputs": [
        {
          "internalType": "bool",
          "name": "",
          "type": "bool"
        }
      ],
      "stateMutability": "view",
      "type": "function"
    },
    {
      "inputs": [
        {
          "internalType": "bytes32",
          "name": "role",
          "type": "bytes32"
        }
      ],
      "name": "getRoleAdmin",
      "outputs": [
        {
          "internalType": "bytes32",
          "name": "",
          "type": "bytes32"
        }
      ],
      "stateMutability": "view",
      "type": "function"
    },
    {
      "inputs": [
        {
          "internalType": "bytes32",
          "name": "role",
          "type": "bytes32"
        },
        {
          "internalType": "address",
          "name": "account",
          "type": "address"
        }
      ],
      "name": "grantRole",
      "outputs": [],
      "stateMutability": "nonpayable",
      "type": "function"
    },
    {
      "inputs": [
        {
          "internalType": "bytes32",
          "name": "role",
          "type": "bytes32"
        },
        {
          "internalType": "address",
          "name": "account",
          "type": "address"
        }
      ],
      "name": "hasRole",
      "outputs": [
        {
          "internalType": "bool",
          "name": "",
          "type": "bool"
        }
      ],
      "stateMutability": "view",
      "type": "function"
    },
    {
      "inputs": [
        {
          "internalType": "address",
          "name": "defaultAdmin",
          "type": "address"
        },
        {
          "internalType": "address",
          "name": "minter",
          "type": "address"
        }
      ],
      "name": "initialize",
      "outputs": [],
      "stateMutability": "nonpayable",
      "type": "function"
    },
    {
      "inputs": [
        {
          "internalType": "address",
          "name": "account",
          "type": "address"
        },
        {
          "internalType": "address",
          "name": "operator",
          "type": "address"
        }
      ],
      "name": "isApprovedForAll",
      "outputs": [
        {
          "internalType": "bool",
          "name": "",
          "type": "bool"
        }
      ],
      "stateMutability": "view",
      "type": "function"
    },
    {
      "inputs": [
        {
          "internalType": "address",
          "name": "account",
          "type": "address"
        },
        {
          "internalType": "uint256",
          "name": "tokenId",
          "type": "uint256"
        },
        {
          "internalType": "bytes",
          "name": "data",
          "type": "bytes"
        }
      ],
      "name": "mint",
      "outputs": [],
      "stateMutability": "nonpayable",
      "type": "function"
    },
    {
      "inputs": [],
      "name": "pause",
      "outputs": [],
      "stateMutability": "nonpayable",
      "type": "function"
    },
    {
      "inputs": [],
      "name": "paused",
      "outputs": [
        {
          "internalType": "bool",
          "name": "",
          "type": "bool"
        }
      ],
      "stateMutability": "view",
      "type": "function"
    },
    {
      "inputs": [
        {
          "internalType": "bytes32",
          "name": "role",
          "type": "bytes32"
        },
        {
          "internalType": "address",
          "name": "callerConfirmation",
          "type": "address"
        }
      ],
      "name": "renounceRole",
      "outputs": [],
      "stateMutability": "nonpayable",
      "type": "function"
    },
    {
      "inputs": [
        {
          "internalType": "bytes32",
          "name": "role",
          "type": "bytes32"
        },
        {
          "internalType": "address",
          "name": "account",
          "type": "address"
        }
      ],
      "name": "revokeRole",
      "outputs": [],
      "stateMutability": "nonpayable",
      "type": "function"
    },
    {
      "inputs": [
        {
          "internalType": "address",
          "name": "from",
          "type": "address"
        },
        {
          "internalType": "address",
          "name": "to",
          "type": "address"
        },
        {
          "internalType": "uint256[]",
          "name": "ids",
          "type": "uint256[]"
        },
        {
          "internalType": "uint256[]",
          "name": "values",
          "type": "uint256[]"
        },
        {
          "internalType": "bytes",
          "name": "data",
          "type": "bytes"
        }
      ],
      "name": "safeBatchTransferFrom",
      "outputs": [],
      "stateMutability": "nonpayable",
      "type": "function"
    },
    {
      "inputs": [
        {
          "internalType": "address",
          "name": "from",
          "type": "address"
        },
        {
          "internalType": "address",
          "name": "to",
          "type": "address"
        },
        {
          "internalType": "uint256",
          "name": "id",
          "type": "uint256"
        },
        {
          "internalType": "uint256",
          "name": "value",
          "type": "uint256"
        },
        {
          "internalType": "bytes",
          "name": "data",
          "type": "bytes"
        }
      ],
      "name": "safeTransferFrom",
      "outputs": [],
      "stateMutability": "nonpayable",
      "type": "function"
    },
    {
      "inputs": [
        {
          "internalType": "address",
          "name": "operator",
          "type": "address"
        },
        {
          "internalType": "bool",
          "name": "approved",
          "type": "bool"
        }
      ],
      "name": "setApprovalForAll",
      "outputs": [],
      "stateMutability": "nonpayable",
      "type": "function"
    },
    {
      "inputs": [
        {
          "internalType": "string",
          "name": "newUri",
          "type": "string"
        }
      ],
      "name": "setURI",
      "outputs": [],
      "stateMutability": "nonpayable",
      "type": "function"
    },
    {
      "inputs": [
        {
          "internalType": "bytes4",
          "name": "interfaceId",
          "type": "bytes4"
        }
      ],
      "name": "supportsInterface",
      "outputs": [
        {
          "internalType": "bool",
          "name": "",
          "type": "bool"
        }
      ],
      "stateMutability": "view",
      "type": "function"
    },
    {
      "inputs": [],
      "name": "totalSupply",
      "outputs": [
        {
          "internalType": "uint256",
          "name": "",
          "type": "uint256"
        }
      ],
      "stateMutability": "view",
      "type": "function"
    },
    {
      "inputs": [
        {
          "internalType": "uint256",
          "name": "id",
          "type": "uint256"
        }
      ],
      "name": "totalSupply",
      "outputs": [
        {
          "internalType": "uint256",
          "name": "",
          "type": "uint256"
        }
      ],
      "stateMutability": "view",
      "type": "function"
    },
    {
      "inputs": [],
      "name": "unpause",
      "outputs": [],
      "stateMutability": "nonpayable",
      "type": "function"
    },
    {
      "inputs": [
        {
          "internalType": "uint256",
          "name": "",
          "type": "uint256"
        }
      ],
      "name": "uri",
      "outputs": [
        {
          "internalType": "string",
          "name": "",
          "type": "string"
        }
      ],
      "stateMutability": "view",
      "type": "function"
    }
  ],
  "bytecode": "0x60806040523480156200001157600080fd5b50620000226200002860201b60201c565b6200019c565b60006200003a6200013260201b60201c565b90508060000160089054906101000a900460ff161562000086576040517ff92ee8a900000000000000000000000000000000000000000000000000000000815260040160405180910390fd5b67ffffffffffffffff80168160000160009054906101000a900467ffffffffffffffff1667ffffffffffffffff16146200012f5767ffffffffffffffff8160000160006101000a81548167ffffffffffffffff021916908367ffffffffffffffff1602179055507fc7f505b2f371ae2175ee4913f4499e1f2633a7b5936321eed1cdaeb6115181d267ffffffffffffffff6040516200012691906200017f565b60405180910390a15b50565b60007ff0c57e16840df040f15088dc2f81fe391c3923bec73e23a9662efc9c229c6a00905090565b600067ffffffffffffffff82169050919050565b62000179816200015a565b82525050565b60006020820190506200019660008301846200016e565b92915050565b613b7680620001ac6000396000f3fe608060405234801561001057600080fd5b50600436106101c35760003560e01c80634f558e79116100f9578063a217fddf11610097578063d539139311610071578063d539139314610500578063d547741f1461051e578063e985e9c51461053a578063f242432a1461056a576101c3565b8063a217fddf14610496578063a22cb465146104b4578063bd85b039146104d0576101c3565b80638456cb59116100d35780638456cb591461042457806391d148541461042e57806394d008ef1461045e578063951fa4d51461047a576101c3565b80634f558e79146103a65780635c975abb146103d65780636e443dda146103f4576101c3565b80632eb2c2d6116101665780633f4ba83a116101405780633f4ba83a1461033457806340569fdd1461033e578063485cc9551461035a5780634e1273f414610376576101c3565b80632eb2c2d6146102e05780632f2ff15d146102fc57806336568abe14610318576101c3565b806308529a4b116101a257806308529a4b146102445780630e89341c1461026257806318160ddd14610292578063248a9ca3146102b0576101c3565b8062fdd58e146101c857806301ffc9a7146101f857806302fe530514610228575b600080fd5b6101e260048036038101906101dd91906127e2565b610586565b6040516101ef9190612831565b60405180910390f35b610212600480360381019061020d91906128a4565b6105ef565b60405161021f91906128ec565b60405180910390f35b610242600480360381019061023d9190612a4d565b610601565b005b61024c61061b565b6040516102599190612831565b60405180910390f35b61027c60048036038101906102779190612a96565b610622565b6040516102899190612b42565b60405180910390f35b61029a6106c5565b6040516102a79190612831565b60405180910390f35b6102ca60048036038101906102c59190612b9a565b6106dd565b6040516102d79190612bd6565b60405180910390f35b6102fa60048036038101906102f59190612d5a565b61070b565b005b61031660048036038101906103119190612e29565b6107b3565b005b610332600480360381019061032d9190612e29565b6107d5565b005b61033c610850565b005b61035860048036038101906103539190612f2c565b610868565b005b610374600480360381019061036f9190612fb7565b61091f565b005b610390600480360381019061038b9190612ff7565b610b18565b60405161039d919061312d565b60405180910390f35b6103c060048036038101906103bb9190612a96565b610c21565b6040516103cd91906128ec565b60405180910390f35b6103de610c35565b6040516103eb91906128ec565b60405180910390f35b61040e60048036038101906104099190612a4d565b610c5a565b60405161041b9190612831565b60405180910390f35b61042c610c8d565b005b61044860048036038101906104439190612e29565b610ca5565b60405161045591906128ec565b60405180910390f35b6104786004803603810190610473919061314f565b610d1e565b005b610494600480360381019061048f9190612f2c565b610da8565b005b61049e610f1d565b6040516104ab9190612bd6565b60405180910390f35b6104ce60048036038101906104c991906131ea565b610f24565b005b6104ea60048036038101906104e59190612a96565b610f3a565b6040516104f79190612831565b60405180910390f35b610508610f65565b6040516105159190612bd6565b60405180910390f35b61053860048036038101906105339190612e29565b610f89565b005b610554600480360381019061054f9190612fb7565b610fab565b60405161056191906128ec565b60405180910390f35b610584600480360381019061057f919061322a565b61104d565b005b6000806105916110f5565b905080600001600084815260200190815260200160002060008573ffffffffffffffffffffffffffffffffffffffff1673ffffffffffffffffffffffffffffffffffffffff1681526020019081526020016000205491505092915050565b60006105fa8261111d565b9050919050565b6000801b61060e81611197565b610617826111ab565b5050565b620f424081565b6060600061062e6110f5565b905080600201805461063f906132f0565b80601f016020809104026020016040519081016040528092919081815260200182805461066b906132f0565b80156106b85780601f1061068d576101008083540402835291602001916106b8565b820191906000526020600020905b81548152906001019060200180831161069b57829003601f168201915b5050505050915050919050565b6000806106d06111cd565b9050806001015491505090565b6000806106e86111f5565b905080600001600084815260200190815260200160002060010154915050919050565b600061071561121d565b90508073ffffffffffffffffffffffffffffffffffffffff168673ffffffffffffffffffffffffffffffffffffffff161415801561075a57506107588682610fab565b155b1561079e5780866040517fe237d922000000000000000000000000000000000000000000000000000000008152600401610795929190613330565b60405180910390fd5b6107ab8686868686611225565b505050505050565b6107bc826106dd565b6107c581611197565b6107cf838361131d565b50505050565b6107dd61121d565b73ffffffffffffffffffffffffffffffffffffffff168173ffffffffffffffffffffffffffffffffffffffff1614610841576040517f6697b23200000000000000000000000000000000000000000000000000000000815260040160405180910390fd5b61084b828261141e565b505050565b6000801b61085d81611197565b610865611520565b50565b6000801b61087581611197565b60005b84518110156108cd576108c085828151811061089757610896613359565b5b6020026020010151858584815181106108b3576108b2613359565b5b6020026020010151611592565b8080600101915050610878565b5060006108d984610f3a565b14610919576040517f08c379a0000000000000000000000000000000000000000000000000000000008152600401610910906133d4565b60405180910390fd5b50505050565b6000610929611639565b905060008160000160089054906101000a900460ff1615905060008260000160009054906101000a900467ffffffffffffffff1690506000808267ffffffffffffffff161480156109775750825b9050600060018367ffffffffffffffff161480156109ac575060003073ffffffffffffffffffffffffffffffffffffffff163b145b9050811580156109ba575080155b156109f1576040517ff92ee8a900000000000000000000000000000000000000000000000000000000815260040160405180910390fd5b60018560000160006101000a81548167ffffffffffffffff021916908367ffffffffffffffff1602179055508315610a415760018560000160086101000a81548160ff0219169083151502179055505b610a62604051806060016040528060288152602001613b1960289139611661565b610a6a611675565b610a7261167f565b610a7a611691565b610a876000801b8861131d565b50610ab27f9f2df0fed2c77648de5860a4cc508cd0818c85b8b8a1ab4ceeef8d981c8956a68761131d565b508315610b0f5760008560000160086101000a81548160ff0219169083151502179055507fc7f505b2f371ae2175ee4913f4499e1f2633a7b5936321eed1cdaeb6115181d26001604051610b06919061344d565b60405180910390a15b50505050505050565b60608151835114610b6457815183516040517f5b059991000000000000000000000000000000000000000000000000000000008152600401610b5b929190613468565b60405180910390fd5b6000835167ffffffffffffffff811115610b8157610b80612922565b5b604051908082528060200260200182016040528015610baf5781602001602082028036833780820191505090505b50905060005b8451811015610c1657610bec610bd4828761169b90919063ffffffff16565b610be783876116af90919063ffffffff16565b610586565b828281518110610bff57610bfe613359565b5b602002602001018181525050806001019050610bb5565b508091505092915050565b600080610c2d83610f3a565b119050919050565b600080610c406116c3565b90508060000160009054906101000a900460ff1691505090565b600081604051602001610c6d91906134cd565b6040516020818303038152906040528051906020012060001c9050919050565b6000801b610c9a81611197565b610ca26116eb565b50565b600080610cb06111f5565b905080600001600085815260200190815260200160002060000160008473ffffffffffffffffffffffffffffffffffffffff1673ffffffffffffffffffffffffffffffffffffffff16815260200190815260200160002060009054906101000a900460ff1691505092915050565b7f9f2df0fed2c77648de5860a4cc508cd0818c85b8b8a1ab4ceeef8d981c8956a6610d4881611197565b6000610d5384610f3a565b14610d93576040517f08c379a0000000000000000000000000000000000000000000000000000000008152600401610d8a90613530565b60405180910390fd5b610da28484620f42408561175d565b50505050565b7f9f2df0fed2c77648de5860a4cc508cd0818c85b8b8a1ab4ceeef8d981c8956a6610dd281611197565b6000610ddd84610f3a565b14610e1d576040517f08c379a0000000000000000000000000000000000000000000000000000000008152600401610e1490613530565b60405180910390fd5b8151845114610e61576040517f08c379a0000000000000000000000000000000000000000000000000000000008152600401610e589061359c565b60405180910390fd5b60005b8451811015610ec957610ebc858281518110610e8357610e82613359565b5b602002602001015185858481518110610e9f57610e9e613359565b5b60200260200101516040518060200160405280600081525061175d565b8080600101915050610e64565b50620f4240610ed784610f3a565b14610f17576040517f08c379a0000000000000000000000000000000000000000000000000000000008152600401610f0e90613608565b60405180910390fd5b50505050565b6000801b81565b610f36610f2f61121d565b83836117f6565b5050565b600080610f456111cd565b905080600001600084815260200190815260200160002054915050919050565b7f9f2df0fed2c77648de5860a4cc508cd0818c85b8b8a1ab4ceeef8d981c8956a681565b610f92826106dd565b610f9b81611197565b610fa5838361141e565b50505050565b600080610fb66110f5565b90508060010160008573ffffffffffffffffffffffffffffffffffffffff1673ffffffffffffffffffffffffffffffffffffffff16815260200190815260200160002060008473ffffffffffffffffffffffffffffffffffffffff1673ffffffffffffffffffffffffffffffffffffffff16815260200190815260200160002060009054906101000a900460ff1691505092915050565b600061105761121d565b90508073ffffffffffffffffffffffffffffffffffffffff168673ffffffffffffffffffffffffffffffffffffffff161415801561109c575061109a8682610fab565b155b156110e05780866040517fe237d9220000000000000000000000000000000000000000000000000000000081526004016110d7929190613330565b60405180910390fd5b6110ed8686868686611975565b505050505050565b60007f88be536d5240c274a3b1d3a1be54482fd9caa294f08c62a7cde569f49a3c4500905090565b60007f7965db0b000000000000000000000000000000000000000000000000000000007bffffffffffffffffffffffffffffffffffffffffffffffffffffffff1916827bffffffffffffffffffffffffffffffffffffffffffffffffffffffff19161480611190575061118f82611a80565b5b9050919050565b6111a8816111a361121d565b611b62565b50565b60006111b56110f5565b9050818160020190816111c891906137ca565b505050565b60007f4a593662ee04d27b6a00ebb31be7fe0c102c2ade82a7c5d764f2df05dc4e2800905090565b60007f02dd7bc7dec4dceedda775e58dd541e08a116c6c53815c0bd028192f7b626800905090565b600033905090565b600073ffffffffffffffffffffffffffffffffffffffff168473ffffffffffffffffffffffffffffffffffffffff16036112975760006040517f57f447ce00000000000000000000000000000000000000000000000000000000815260040161128e919061389c565b60405180910390fd5b600073ffffffffffffffffffffffffffffffffffffffff168573ffffffffffffffffffffffffffffffffffffffff16036113095760006040517f01a83514000000000000000000000000000000000000000000000000000000008152600401611300919061389c565b60405180910390fd5b6113168585858585611bb3565b5050505050565b6000806113286111f5565b90506113348484610ca5565b61141257600181600001600086815260200190815260200160002060000160008573ffffffffffffffffffffffffffffffffffffffff1673ffffffffffffffffffffffffffffffffffffffff16815260200190815260200160002060006101000a81548160ff0219169083151502179055506113ae61121d565b73ffffffffffffffffffffffffffffffffffffffff168373ffffffffffffffffffffffffffffffffffffffff16857f2f8788117e7eff1d82e926ec794901d17c78024a50270940304540a733656f0d60405160405180910390a46001915050611418565b60009150505b92915050565b6000806114296111f5565b90506114358484610ca5565b1561151457600081600001600086815260200190815260200160002060000160008573ffffffffffffffffffffffffffffffffffffffff1673ffffffffffffffffffffffffffffffffffffffff16815260200190815260200160002060006101000a81548160ff0219169083151502179055506114b061121d565b73ffffffffffffffffffffffffffffffffffffffff168373ffffffffffffffffffffffffffffffffffffffff16857ff6391f5c32d9c69d2a47ea670b442974b53935d1edc7fd64eb21e047a839171b60405160405180910390a4600191505061151a565b60009150505b92915050565b611528611c65565b60006115326116c3565b905060008160000160006101000a81548160ff0219169083151502179055507f5db9ee0a495bf2e6ff9c91a7834c1ba4fdd244a5e8aa4e537bd38aeae4b073aa61157a61121d565b604051611587919061389c565b60405180910390a150565b600073ffffffffffffffffffffffffffffffffffffffff168373ffffffffffffffffffffffffffffffffffffffff16036116045760006040517f01a835140000000000000000000000000000000000000000000000000000000081526004016115fb919061389c565b60405180910390fd5b6000806116118484611ca5565b91509150611632856000848460405180602001604052806000815250611bb3565b5050505050565b60007ff0c57e16840df040f15088dc2f81fe391c3923bec73e23a9662efc9c229c6a00905090565b611669611cd5565b61167281611d15565b50565b61167d611cd5565b565b611687611cd5565b61168f611d29565b565b611699611cd5565b565b600060208202602084010151905092915050565b600060208202602084010151905092915050565b60007fcd5ed15c6e187e77e9aee88184c21f4f2182ab5827cb3b7e07fbedcd63f03300905090565b6116f3611d5d565b60006116fd6116c3565b905060018160000160006101000a81548160ff0219169083151502179055507f62e78cea01bee320cd4e420270b5ea74000d11b0c9f74754ebdbfc544b05a25861174561121d565b604051611752919061389c565b60405180910390a150565b600073ffffffffffffffffffffffffffffffffffffffff168473ffffffffffffffffffffffffffffffffffffffff16036117cf5760006040517f57f447ce0000000000000000000000000000000000000000000000000000000081526004016117c6919061389c565b60405180910390fd5b6000806117dc8585611ca5565b915091506117ee600087848487611bb3565b505050505050565b60006118006110f5565b9050600073ffffffffffffffffffffffffffffffffffffffff168373ffffffffffffffffffffffffffffffffffffffff16036118745760006040517fced3e10000000000000000000000000000000000000000000000000000000000815260040161186b919061389c565b60405180910390fd5b818160010160008673ffffffffffffffffffffffffffffffffffffffff1673ffffffffffffffffffffffffffffffffffffffff16815260200190815260200160002060008573ffffffffffffffffffffffffffffffffffffffff1673ffffffffffffffffffffffffffffffffffffffff16815260200190815260200160002060006101000a81548160ff0219169083151502179055508273ffffffffffffffffffffffffffffffffffffffff168473ffffffffffffffffffffffffffffffffffffffff167f17307eab39ab6107e8899845ad3d59bd9653f200f220920489ca2b5937696c318460405161196791906128ec565b60405180910390a350505050565b600073ffffffffffffffffffffffffffffffffffffffff168473ffffffffffffffffffffffffffffffffffffffff16036119e75760006040517f57f447ce0000000000000000000000000000000000000000000000000000000081526004016119de919061389c565b60405180910390fd5b600073ffffffffffffffffffffffffffffffffffffffff168573ffffffffffffffffffffffffffffffffffffffff1603611a595760006040517f01a83514000000000000000000000000000000000000000000000000000000008152600401611a50919061389c565b60405180910390fd5b600080611a668585611ca5565b91509150611a778787848487611bb3565b50505050505050565b60007fd9b67a26000000000000000000000000000000000000000000000000000000007bffffffffffffffffffffffffffffffffffffffffffffffffffffffff1916827bffffffffffffffffffffffffffffffffffffffffffffffffffffffff19161480611b4b57507f0e89341c000000000000000000000000000000000000000000000000000000007bffffffffffffffffffffffffffffffffffffffffffffffffffffffff1916827bffffffffffffffffffffffffffffffffffffffffffffffffffffffff1916145b80611b5b5750611b5a82611d9e565b5b9050919050565b611b6c8282610ca5565b611baf5780826040517fe2517d3f000000000000000000000000000000000000000000000000000000008152600401611ba69291906138b7565b60405180910390fd5b5050565b611bbf85858585611e08565b600073ffffffffffffffffffffffffffffffffffffffff168473ffffffffffffffffffffffffffffffffffffffff1614611c5e576000611bfd61121d565b90506001845103611c4d576000611c1e6000866116af90919063ffffffff16565b90506000611c366000866116af90919063ffffffff16565b9050611c46838989858589611e1a565b5050611c5c565b611c5b818787878787611fce565b5b505b5050505050565b611c6d610c35565b611ca3576040517f8dfc202b00000000000000000000000000000000000000000000000000000000815260040160405180910390fd5b565b60608060405191506001825283602083015260408201905060018152826020820152604081016040529250929050565b611cdd612182565b611d13576040517fd7e6bcf800000000000000000000000000000000000000000000000000000000815260040160405180910390fd5b565b611d1d611cd5565b611d26816111ab565b50565b611d31611cd5565b6000611d3b6116c3565b905060008160000160006101000a81548160ff02191690831515021790555050565b611d65610c35565b15611d9c576040517fd93c066500000000000000000000000000000000000000000000000000000000815260040160405180910390fd5b565b60007f01ffc9a7000000000000000000000000000000000000000000000000000000007bffffffffffffffffffffffffffffffffffffffffffffffffffffffff1916827bffffffffffffffffffffffffffffffffffffffffffffffffffffffff1916149050919050565b611e14848484846121a2565b50505050565b60008473ffffffffffffffffffffffffffffffffffffffff163b1115611fc6578373ffffffffffffffffffffffffffffffffffffffff1663f23a6e6187878686866040518663ffffffff1660e01b8152600401611e7b959493929190613935565b6020604051808303816000875af1925050508015611eb757506040513d601f19601f82011682018060405250810190611eb491906139a4565b60015b611f3b573d8060008114611ee7576040519150601f19603f3d011682016040523d82523d6000602084013e611eec565b606091505b506000815103611f3357846040517f57f447ce000000000000000000000000000000000000000000000000000000008152600401611f2a919061389c565b60405180910390fd5b805181602001fd5b63f23a6e6160e01b7bffffffffffffffffffffffffffffffffffffffffffffffffffffffff1916817bffffffffffffffffffffffffffffffffffffffffffffffffffffffff191614611fc457846040517f57f447ce000000000000000000000000000000000000000000000000000000008152600401611fbb919061389c565b60405180910390fd5b505b505050505050565b60008473ffffffffffffffffffffffffffffffffffffffff163b111561217a578373ffffffffffffffffffffffffffffffffffffffff1663bc197c8187878686866040518663ffffffff1660e01b815260040161202f9594939291906139d1565b6020604051808303816000875af192505050801561206b57506040513d601f19601f8201168201806040525081019061206891906139a4565b60015b6120ef573d806000811461209b576040519150601f19603f3d011682016040523d82523d6000602084013e6120a0565b606091505b5060008151036120e757846040517f57f447ce0000000000000000000000000000000000000000000000000000000081526004016120de919061389c565b60405180910390fd5b805181602001fd5b63bc197c8160e01b7bffffffffffffffffffffffffffffffffffffffffffffffffffffffff1916817bffffffffffffffffffffffffffffffffffffffffffffffffffffffff19161461217857846040517f57f447ce00000000000000000000000000000000000000000000000000000000815260040161216f919061389c565b60405180910390fd5b505b505050505050565b600061218c611639565b60000160089054906101000a900460ff16905090565b60006121ac6111cd565b90506121ba85858585612362565b600073ffffffffffffffffffffffffffffffffffffffff168573ffffffffffffffffffffffffffffffffffffffff1603612298576000805b845181101561227a5760008482815181106122105761220f613359565b5b602002602001015190508084600001600088858151811061223457612233613359565b5b6020026020010151815260200190815260200160002060008282546122599190613a68565b92505081905550808361226c9190613a68565b9250508060010190506121f2565b508082600101600082825461228f9190613a68565b92505081905550505b600073ffffffffffffffffffffffffffffffffffffffff168473ffffffffffffffffffffffffffffffffffffffff160361235b576000805b84518110156123465760008482815181106122ee576122ed613359565b5b602002602001015190508084600001600088858151811061231257612311613359565b5b60200260200101518152602001908152602001600020600082825403925050819055508083019250508060010190506122d0565b50808260010160008282540392505081905550505b5050505050565b61236a611d5d565b6123768484848461237c565b50505050565b60006123866110f5565b905081518351146123d257825182516040517f5b0599910000000000000000000000000000000000000000000000000000000081526004016123c9929190613468565b60405180910390fd5b60006123dc61121d565b905060005b84518110156125f45760006123ff82876116af90919063ffffffff16565b9050600061241683876116af90919063ffffffff16565b9050600073ffffffffffffffffffffffffffffffffffffffff168973ffffffffffffffffffffffffffffffffffffffff161461254957600085600001600084815260200190815260200160002060008b73ffffffffffffffffffffffffffffffffffffffff1673ffffffffffffffffffffffffffffffffffffffff168152602001908152602001600020549050818110156124ee57898183856040517f03dee4c50000000000000000000000000000000000000000000000000000000081526004016124e59493929190613a9c565b60405180910390fd5b81810386600001600085815260200190815260200160002060008c73ffffffffffffffffffffffffffffffffffffffff1673ffffffffffffffffffffffffffffffffffffffff16815260200190815260200160002081905550505b600073ffffffffffffffffffffffffffffffffffffffff168873ffffffffffffffffffffffffffffffffffffffff16146125e7578085600001600084815260200190815260200160002060008a73ffffffffffffffffffffffffffffffffffffffff1673ffffffffffffffffffffffffffffffffffffffff16815260200190815260200160002060008282546125df9190613a68565b925050819055505b50508060010190506123e1565b5060018451036126b35760006126146000866116af90919063ffffffff16565b9050600061262c6000866116af90919063ffffffff16565b90508673ffffffffffffffffffffffffffffffffffffffff168873ffffffffffffffffffffffffffffffffffffffff168473ffffffffffffffffffffffffffffffffffffffff167fc3d58168c5ae7397731d063d5bbf3d657854427343f4c083240f7aacaa2d0f6285856040516126a4929190613468565b60405180910390a45050612732565b8473ffffffffffffffffffffffffffffffffffffffff168673ffffffffffffffffffffffffffffffffffffffff168273ffffffffffffffffffffffffffffffffffffffff167f4a39dc06d4c0dbc64b70af90fd698a233a518aa5d07e595d983b8c0526c8f7fb8787604051612729929190613ae1565b60405180910390a45b505050505050565b6000604051905090565b600080fd5b600080fd5b600073ffffffffffffffffffffffffffffffffffffffff82169050919050565b60006127798261274e565b9050919050565b6127898161276e565b811461279457600080fd5b50565b6000813590506127a681612780565b92915050565b6000819050919050565b6127bf816127ac565b81146127ca57600080fd5b50565b6000813590506127dc816127b6565b92915050565b600080604083850312156127f9576127f8612744565b5b600061280785828601612797565b9250506020612818858286016127cd565b9150509250929050565b61282b816127ac565b82525050565b60006020820190506128466000830184612822565b92915050565b60007fffffffff0000000000000000000000000000000000000000000000000000000082169050919050565b6128818161284c565b811461288c57600080fd5b50565b60008135905061289e81612878565b92915050565b6000602082840312156128ba576128b9612744565b5b60006128c88482850161288f565b91505092915050565b60008115159050919050565b6128e6816128d1565b82525050565b600060208201905061290160008301846128dd565b92915050565b600080fd5b600080fd5b6000601f19601f8301169050919050565b7f4e487b7100000000000000000000000000000000000000000000000000000000600052604160045260246000fd5b61295a82612911565b810181811067ffffffffffffffff8211171561297957612978612922565b5b80604052505050565b600061298c61273a565b90506129988282612951565b919050565b600067ffffffffffffffff8211156129b8576129b7612922565b5b6129c182612911565b9050602081019050919050565b82818337600083830152505050565b60006129f06129eb8461299d565b612982565b905082815260208101848484011115612a0c57612a0b61290c565b5b612a178482856129ce565b509392505050565b600082601f830112612a3457612a33612907565b5b8135612a448482602086016129dd565b91505092915050565b600060208284031215612a6357612a62612744565b5b600082013567ffffffffffffffff811115612a8157612a80612749565b5b612a8d84828501612a1f565b91505092915050565b600060208284031215612aac57612aab612744565b5b6000612aba848285016127cd565b91505092915050565b600081519050919050565b600082825260208201905092915050565b60005b83811015612afd578082015181840152602081019050612ae2565b60008484015250505050565b6000612b1482612ac3565b612b1e8185612ace565b9350612b2e818560208601612adf565b612b3781612911565b840191505092915050565b60006020820190508181036000830152612b5c8184612b09565b905092915050565b6000819050919050565b612b7781612b64565b8114612b8257600080fd5b50565b600081359050612b9481612b6e565b92915050565b600060208284031215612bb057612baf612744565b5b6000612bbe84828501612b85565b91505092915050565b612bd081612b64565b82525050565b6000602082019050612beb6000830184612bc7565b92915050565b600067ffffffffffffffff821115612c0c57612c0b612922565b5b602082029050602081019050919050565b600080fd5b6000612c35612c3084612bf1565b612982565b90508083825260208201905060208402830185811115612c5857612c57612c1d565b5b835b81811015612c815780612c6d88826127cd565b845260208401935050602081019050612c5a565b5050509392505050565b600082601f830112612ca057612c9f612907565b5b8135612cb0848260208601612c22565b91505092915050565b600067ffffffffffffffff821115612cd457612cd3612922565b5b612cdd82612911565b9050602081019050919050565b6000612cfd612cf884612cb9565b612982565b905082815260208101848484011115612d1957612d1861290c565b5b612d248482856129ce565b509392505050565b600082601f830112612d4157612d40612907565b5b8135612d51848260208601612cea565b91505092915050565b600080600080600060a08688031215612d7657612d75612744565b5b6000612d8488828901612797565b9550506020612d9588828901612797565b945050604086013567ffffffffffffffff811115612db657612db5612749565b5b612dc288828901612c8b565b935050606086013567ffffffffffffffff811115612de357612de2612749565b5b612def88828901612c8b565b925050608086013567ffffffffffffffff811115612e1057612e0f612749565b5b612e1c88828901612d2c565b9150509295509295909350565b60008060408385031215612e4057612e3f612744565b5b6000612e4e85828601612b85565b9250506020612e5f85828601612797565b9150509250929050565b600067ffffffffffffffff821115612e8457612e83612922565b5b602082029050602081019050919050565b6000612ea8612ea384612e69565b612982565b90508083825260208201905060208402830185811115612ecb57612eca612c1d565b5b835b81811015612ef45780612ee08882612797565b845260208401935050602081019050612ecd565b5050509392505050565b600082601f830112612f1357612f12612907565b5b8135612f23848260208601612e95565b91505092915050565b600080600060608486031215612f4557612f44612744565b5b600084013567ffffffffffffffff811115612f6357612f62612749565b5b612f6f86828701612efe565b9350506020612f80868287016127cd565b925050604084013567ffffffffffffffff811115612fa157612fa0612749565b5b612fad86828701612c8b565b9150509250925092565b60008060408385031215612fce57612fcd612744565b5b6000612fdc85828601612797565b9250506020612fed85828601612797565b9150509250929050565b6000806040838503121561300e5761300d612744565b5b600083013567ffffffffffffffff81111561302c5761302b612749565b5b61303885828601612efe565b925050602083013567ffffffffffffffff81111561305957613058612749565b5b61306585828601612c8b565b9150509250929050565b600081519050919050565b600082825260208201905092915050565b6000819050602082019050919050565b6130a4816127ac565b82525050565b60006130b6838361309b565b60208301905092915050565b6000602082019050919050565b60006130da8261306f565b6130e4818561307a565b93506130ef8361308b565b8060005b8381101561312057815161310788826130aa565b9750613112836130c2565b9250506001810190506130f3565b5085935050505092915050565b6000602082019050818103600083015261314781846130cf565b905092915050565b60008060006060848603121561316857613167612744565b5b600061317686828701612797565b9350506020613187868287016127cd565b925050604084013567ffffffffffffffff8111156131a8576131a7612749565b5b6131b486828701612d2c565b9150509250925092565b6131c7816128d1565b81146131d257600080fd5b50565b6000813590506131e4816131be565b92915050565b6000806040838503121561320157613200612744565b5b600061320f85828601612797565b9250506020613220858286016131d5565b9150509250929050565b600080600080600060a0868803121561324657613245612744565b5b600061325488828901612797565b955050602061326588828901612797565b9450506040613276888289016127cd565b9350506060613287888289016127cd565b925050608086013567ffffffffffffffff8111156132a8576132a7612749565b5b6132b488828901612d2c565b9150509295509295909350565b7f4e487b7100000000000000000000000000000000000000000000000000000000600052602260045260246000fd5b6000600282049050600182168061330857607f821691505b60208210810361331b5761331a6132c1565b5b50919050565b61332a8161276e565b82525050565b60006040820190506133456000830185613321565b6133526020830184613321565b9392505050565b7f4e487b7100000000000000000000000000000000000000000000000000000000600052603260045260246000fd5b7f546f6b656e206e6f74206275726e656400000000000000000000000000000000600082015250565b60006133be601083612ace565b91506133c982613388565b602082019050919050565b600060208201905081810360008301526133ed816133b1565b9050919050565b6000819050919050565b600067ffffffffffffffff82169050919050565b6000819050919050565b600061343761343261342d846133f4565b613412565b6133fe565b9050919050565b6134478161341c565b82525050565b6000602082019050613462600083018461343e565b92915050565b600060408201905061347d6000830185612822565b61348a6020830184612822565b9392505050565b600081905092915050565b60006134a782612ac3565b6134b18185613491565b93506134c1818560208601612adf565b80840191505092915050565b60006134d9828461349c565b915081905092915050565b7f546f6b656e20616c7265616479206d696e746564000000000000000000000000600082015250565b600061351a601483612ace565b9150613525826134e4565b602082019050919050565b600060208201905081810360008301526135498161350d565b9050919050565b7f4172726179206c656e677468206d69736d617463680000000000000000000000600082015250565b6000613586601583612ace565b915061359182613550565b602082019050919050565b600060208201905081810360008301526135b581613579565b9050919050565b7f416d6f756e7473206d69736d6174636800000000000000000000000000000000600082015250565b60006135f2601083612ace565b91506135fd826135bc565b602082019050919050565b60006020820190508181036000830152613621816135e5565b9050919050565b60008190508160005260206000209050919050565b60006020601f8301049050919050565b600082821b905092915050565b60006008830261368a7fffffffffffffffffffffffffffffffffffffffffffffffffffffffffffffffff8261364d565b613694868361364d565b95508019841693508086168417925050509392505050565b60006136c76136c26136bd846127ac565b613412565b6127ac565b9050919050565b6000819050919050565b6136e1836136ac565b6136f56136ed826136ce565b84845461365a565b825550505050565b600090565b61370a6136fd565b6137158184846136d8565b505050565b5b818110156137395761372e600082613702565b60018101905061371b565b5050565b601f82111561377e5761374f81613628565b6137588461363d565b81016020851015613767578190505b61377b6137738561363d565b83018261371a565b50505b505050565b600082821c905092915050565b60006137a160001984600802613783565b1980831691505092915050565b60006137ba8383613790565b9150826002028217905092915050565b6137d382612ac3565b67ffffffffffffffff8111156137ec576137eb612922565b5b6137f682546132f0565b61380182828561373d565b600060209050601f8311600181146138345760008415613822578287015190505b61382c85826137ae565b865550613894565b601f19841661384286613628565b60005b8281101561386a57848901518255600182019150602085019450602081019050613845565b868310156138875784890151613883601f891682613790565b8355505b6001600288020188555050505b505050505050565b60006020820190506138b16000830184613321565b92915050565b60006040820190506138cc6000830185613321565b6138d96020830184612bc7565b9392505050565b600081519050919050565b600082825260208201905092915050565b6000613907826138e0565b61391181856138eb565b9350613921818560208601612adf565b61392a81612911565b840191505092915050565b600060a08201905061394a6000830188613321565b6139576020830187613321565b6139646040830186612822565b6139716060830185612822565b818103608083015261398381846138fc565b90509695505050505050565b60008151905061399e81612878565b92915050565b6000602082840312156139ba576139b9612744565b5b60006139c88482850161398f565b91505092915050565b600060a0820190506139e66000830188613321565b6139f36020830187613321565b8181036040830152613a0581866130cf565b90508181036060830152613a1981856130cf565b90508181036080830152613a2d81846138fc565b90509695505050505050565b7f4e487b7100000000000000000000000000000000000000000000000000000000600052601160045260246000fd5b6000613a73826127ac565b9150613a7e836127ac565b9250828201905080821115613a9657613a95613a39565b5b92915050565b6000608082019050613ab16000830187613321565b613abe6020830186612822565b613acb6040830185612822565b613ad86060830184612822565b95945050505050565b60006040820190508181036000830152613afb81856130cf565b90508181036020830152613b0f81846130cf565b9050939250505056fe68747470733a2f2f74616c656e7469722e636f6d2f6170692f746f6b656e2f7b69647d2e6a736f6ea2646970667358221220585ca900eca4df6ca6609fde7e382ffac288674df66c5f85b6d51f2cb2fa6e9a64736f6c63430008180033",
  "linkReferences": {},
  "deployedLinkReferences": {}
}