{
  "_format": "hh-sol-artifact-1",
  "contractName": "TalentirRoyalties",
  "sourceName": "contracts/TalentirRoyalties.sol",
  "abi": [
    {
      "anonymous": false,
      "inputs": [
        {
          "indexed": false,
          "internalType": "address",
          "name": "from",
          "type": "address"
        },
        {
          "indexed": false,
          "internalType": "address",
          "name": "to",
          "type": "address"
        },
        {
          "indexed": false,
          "internalType": "uint256",
          "name": "tokenID",
          "type": "uint256"
        }
      ],
      "name": "UpdateRoyaltyReceiver",
      "type": "event"
    },
    {
      "inputs": [
        {
          "internalType": "uint256",
          "name": "tokenId",
          "type": "uint256"
        },
        {
          "internalType": "uint256",
          "name": "value",
          "type": "uint256"
        }
      ],
      "name": "royaltyInfo",
      "outputs": [
        {
          "internalType": "address",
          "name": "receiver",
          "type": "address"
        },
        {
          "internalType": "uint256",
          "name": "royaltyAmount",
          "type": "uint256"
        }
      ],
      "stateMutability": "view",
      "type": "function"
    },
    {
      "inputs": [
        {
          "internalType": "bytes4",
          "name": "interfaceId",
          "type": "bytes4"
        }
      ],
      "name": "supportsInterface",
      "outputs": [
        {
          "internalType": "bool",
          "name": "",
          "type": "bool"
        }
      ],
      "stateMutability": "view",
      "type": "function"
    },
    {
      "inputs": [
        {
          "internalType": "uint256",
          "name": "tokenId",
          "type": "uint256"
        },
        {
          "internalType": "address",
          "name": "newRoyaltyReceiver",
          "type": "address"
        }
      ],
      "name": "updateRoyaltyReceiver",
      "outputs": [],
      "stateMutability": "nonpayable",
      "type": "function"
    }
  ],
  "bytecode": "0x608060405234801561001057600080fd5b50610386806100206000396000f3fe608060405234801561001057600080fd5b50600436106100415760003560e01c806301ffc9a7146100465780632a55205a1461006e578063354c85aa146100a0575b600080fd5b61005961005436600461027b565b6100b5565b60405190151581526020015b60405180910390f35b61008161007c3660046102e4565b6100ec565b604080516001600160a01b039093168352602083019190915201610065565b6100b36100ae3660046102aa565b610191565b005b60006001600160e01b0319821663152a902d60e11b14806100e657506301ffc9a760e01b6001600160e01b03198316145b92915050565b60008281526020819052604081205481906001600160a01b03166101575760405162461bcd60e51b815260206004820152601b60248201527f4e6f20726f79616c747920696e666f20666f722061646472657373000000000060448201526064015b60405180910390fd5b6000848152602081905260409020546001600160a01b03169150606461017e600a85610325565b6101889190610305565b90509250929050565b6000828152602081905260409020546001600160a01b03163381146101f85760405162461bcd60e51b815260206004820152601c60248201527f526f79616c7479207265636569766572206d7573742075706461746500000000604482015260640161014e565b6102028383610207565b505050565b6000828152602081815260409182902080546001600160a01b031981166001600160a01b0386811691821790935584519290911680835292820152918201849052907f971bbbcaa216717fc665055dd5772bf872f40f18475942b07c7b48594b662aa49060600160405180910390a1505050565b60006020828403121561028c578081fd5b81356001600160e01b0319811681146102a3578182fd5b9392505050565b600080604083850312156102bc578081fd5b8235915060208301356001600160a01b03811681146102d9578182fd5b809150509250929050565b600080604083850312156102f6578182fd5b50508035926020909101359150565b60008261032057634e487b7160e01b81526012600452602481fd5b500490565b600081600019048311821515161561034b57634e487b7160e01b81526011600452602481fd5b50029056fea2646970667358221220ba54a45c80914857967e2aaa1e83bb98ef677cabfd8abd0763309769141ece8164736f6c63430008040033",
  "linkReferences": {},
  "deployedLinkReferences": {}
}