{
  "_format": "hh-sol-artifact-1",
  "contractName": "Talentir",
  "sourceName": "contracts/Talentir.sol",
  "abi": [
    {
      "inputs": [],
      "stateMutability": "nonpayable",
      "type": "constructor"
    },
    {
      "anonymous": false,
      "inputs": [
        {
          "indexed": true,
          "internalType": "address",
          "name": "owner",
          "type": "address"
        },
        {
          "indexed": true,
          "internalType": "address",
          "name": "approved",
          "type": "address"
        },
        {
          "indexed": true,
          "internalType": "uint256",
          "name": "tokenId",
          "type": "uint256"
        }
      ],
      "name": "Approval",
      "type": "event"
    },
    {
      "anonymous": false,
      "inputs": [
        {
          "indexed": true,
          "internalType": "address",
          "name": "owner",
          "type": "address"
        },
        {
          "indexed": true,
          "internalType": "address",
          "name": "operator",
          "type": "address"
        },
        {
          "indexed": false,
          "internalType": "bool",
          "name": "approved",
          "type": "bool"
        }
      ],
      "name": "ApprovalForAll",
      "type": "event"
    },
    {
      "anonymous": false,
      "inputs": [
        {
          "indexed": true,
          "internalType": "bytes32",
          "name": "role",
          "type": "bytes32"
        },
        {
          "indexed": true,
          "internalType": "bytes32",
          "name": "previousAdminRole",
          "type": "bytes32"
        },
        {
          "indexed": true,
          "internalType": "bytes32",
          "name": "newAdminRole",
          "type": "bytes32"
        }
      ],
      "name": "RoleAdminChanged",
      "type": "event"
    },
    {
      "anonymous": false,
      "inputs": [
        {
          "indexed": true,
          "internalType": "bytes32",
          "name": "role",
          "type": "bytes32"
        },
        {
          "indexed": true,
          "internalType": "address",
          "name": "account",
          "type": "address"
        },
        {
          "indexed": true,
          "internalType": "address",
          "name": "sender",
          "type": "address"
        }
      ],
      "name": "RoleGranted",
      "type": "event"
    },
    {
      "anonymous": false,
      "inputs": [
        {
          "indexed": true,
          "internalType": "bytes32",
          "name": "role",
          "type": "bytes32"
        },
        {
          "indexed": true,
          "internalType": "address",
          "name": "account",
          "type": "address"
        },
        {
          "indexed": true,
          "internalType": "address",
          "name": "sender",
          "type": "address"
        }
      ],
      "name": "RoleRevoked",
      "type": "event"
    },
    {
      "anonymous": false,
      "inputs": [
        {
          "indexed": true,
          "internalType": "address",
          "name": "from",
          "type": "address"
        },
        {
          "indexed": true,
          "internalType": "address",
          "name": "to",
          "type": "address"
        },
        {
          "indexed": true,
          "internalType": "uint256",
          "name": "tokenId",
          "type": "uint256"
        }
      ],
      "name": "Transfer",
      "type": "event"
    },
    {
      "anonymous": false,
      "inputs": [
        {
          "indexed": false,
          "internalType": "address",
          "name": "from",
          "type": "address"
        },
        {
          "indexed": false,
          "internalType": "address",
          "name": "to",
          "type": "address"
        },
        {
          "indexed": false,
          "internalType": "uint256",
          "name": "tokenID",
          "type": "uint256"
        }
      ],
      "name": "UpdateRoyaltyReceiver",
      "type": "event"
    },
    {
      "inputs": [],
      "name": "DEFAULT_ADMIN_ROLE",
      "outputs": [
        {
          "internalType": "bytes32",
          "name": "",
          "type": "bytes32"
        }
      ],
      "stateMutability": "view",
      "type": "function"
    },
    {
      "inputs": [],
      "name": "MINTER_ROLE",
      "outputs": [
        {
          "internalType": "bytes32",
          "name": "",
          "type": "bytes32"
        }
      ],
      "stateMutability": "view",
      "type": "function"
    },
    {
      "inputs": [
        {
          "internalType": "address",
          "name": "to",
          "type": "address"
        },
        {
          "internalType": "uint256",
          "name": "tokenId",
          "type": "uint256"
        }
      ],
      "name": "approve",
      "outputs": [],
      "stateMutability": "nonpayable",
      "type": "function"
    },
    {
      "inputs": [
        {
          "internalType": "address",
          "name": "owner",
          "type": "address"
        }
      ],
      "name": "balanceOf",
      "outputs": [
        {
          "internalType": "uint256",
          "name": "",
          "type": "uint256"
        }
      ],
      "stateMutability": "view",
      "type": "function"
    },
    {
      "inputs": [
        {
          "internalType": "uint256",
          "name": "tokenId",
          "type": "uint256"
        }
      ],
      "name": "getApproved",
      "outputs": [
        {
          "internalType": "address",
          "name": "",
          "type": "address"
        }
      ],
      "stateMutability": "view",
      "type": "function"
    },
    {
      "inputs": [
        {
          "internalType": "bytes32",
          "name": "role",
          "type": "bytes32"
        }
      ],
      "name": "getRoleAdmin",
      "outputs": [
        {
          "internalType": "bytes32",
          "name": "",
          "type": "bytes32"
        }
      ],
      "stateMutability": "view",
      "type": "function"
    },
    {
      "inputs": [
        {
          "internalType": "bytes32",
          "name": "role",
          "type": "bytes32"
        },
        {
          "internalType": "address",
          "name": "account",
          "type": "address"
        }
      ],
      "name": "grantRole",
      "outputs": [],
      "stateMutability": "nonpayable",
      "type": "function"
    },
    {
      "inputs": [
        {
          "internalType": "bytes32",
          "name": "role",
          "type": "bytes32"
        },
        {
          "internalType": "address",
          "name": "account",
          "type": "address"
        }
      ],
      "name": "hasRole",
      "outputs": [
        {
          "internalType": "bool",
          "name": "",
          "type": "bool"
        }
      ],
      "stateMutability": "view",
      "type": "function"
    },
    {
      "inputs": [
        {
          "internalType": "address",
          "name": "owner",
          "type": "address"
        },
        {
          "internalType": "address",
          "name": "operator",
          "type": "address"
        }
      ],
      "name": "isApprovedForAll",
      "outputs": [
        {
          "internalType": "bool",
          "name": "",
          "type": "bool"
        }
      ],
      "stateMutability": "view",
      "type": "function"
    },
    {
      "inputs": [
        {
          "internalType": "address",
          "name": "to",
          "type": "address"
        },
        {
          "internalType": "string",
          "name": "cid",
          "type": "string"
        },
        {
          "internalType": "address",
          "name": "royaltyReceiver",
          "type": "address"
        }
      ],
      "name": "mint",
      "outputs": [],
      "stateMutability": "nonpayable",
      "type": "function"
    },
    {
      "inputs": [],
      "name": "name",
      "outputs": [
        {
          "internalType": "string",
          "name": "",
          "type": "string"
        }
      ],
      "stateMutability": "view",
      "type": "function"
    },
    {
      "inputs": [
        {
          "internalType": "uint256",
          "name": "tokenId",
          "type": "uint256"
        }
      ],
      "name": "ownerOf",
      "outputs": [
        {
          "internalType": "address",
          "name": "",
          "type": "address"
        }
      ],
      "stateMutability": "view",
      "type": "function"
    },
    {
      "inputs": [
        {
          "internalType": "bytes32",
          "name": "role",
          "type": "bytes32"
        },
        {
          "internalType": "address",
          "name": "account",
          "type": "address"
        }
      ],
      "name": "renounceRole",
      "outputs": [],
      "stateMutability": "nonpayable",
      "type": "function"
    },
    {
      "inputs": [
        {
          "internalType": "bytes32",
          "name": "role",
          "type": "bytes32"
        },
        {
          "internalType": "address",
          "name": "account",
          "type": "address"
        }
      ],
      "name": "revokeRole",
      "outputs": [],
      "stateMutability": "nonpayable",
      "type": "function"
    },
    {
      "inputs": [
        {
          "internalType": "uint256",
          "name": "tokenId",
          "type": "uint256"
        },
        {
          "internalType": "uint256",
          "name": "value",
          "type": "uint256"
        }
      ],
      "name": "royaltyInfo",
      "outputs": [
        {
          "internalType": "address",
          "name": "receiver",
          "type": "address"
        },
        {
          "internalType": "uint256",
          "name": "royaltyAmount",
          "type": "uint256"
        }
      ],
      "stateMutability": "view",
      "type": "function"
    },
    {
      "inputs": [
        {
          "internalType": "address",
          "name": "from",
          "type": "address"
        },
        {
          "internalType": "address",
          "name": "to",
          "type": "address"
        },
        {
          "internalType": "uint256",
          "name": "tokenId",
          "type": "uint256"
        }
      ],
      "name": "safeTransferFrom",
      "outputs": [],
      "stateMutability": "nonpayable",
      "type": "function"
    },
    {
      "inputs": [
        {
          "internalType": "address",
          "name": "from",
          "type": "address"
        },
        {
          "internalType": "address",
          "name": "to",
          "type": "address"
        },
        {
          "internalType": "uint256",
          "name": "tokenId",
          "type": "uint256"
        },
        {
          "internalType": "bytes",
          "name": "_data",
          "type": "bytes"
        }
      ],
      "name": "safeTransferFrom",
      "outputs": [],
      "stateMutability": "nonpayable",
      "type": "function"
    },
    {
      "inputs": [
        {
          "internalType": "address",
          "name": "operator",
          "type": "address"
        },
        {
          "internalType": "bool",
          "name": "approved",
          "type": "bool"
        }
      ],
      "name": "setApprovalForAll",
      "outputs": [],
      "stateMutability": "nonpayable",
      "type": "function"
    },
    {
      "inputs": [
        {
          "internalType": "bytes4",
          "name": "interfaceId",
          "type": "bytes4"
        }
      ],
      "name": "supportsInterface",
      "outputs": [
        {
          "internalType": "bool",
          "name": "",
          "type": "bool"
        }
      ],
      "stateMutability": "view",
      "type": "function"
    },
    {
      "inputs": [],
      "name": "symbol",
      "outputs": [
        {
          "internalType": "string",
          "name": "",
          "type": "string"
        }
      ],
      "stateMutability": "view",
      "type": "function"
    },
    {
      "inputs": [
        {
          "internalType": "string",
          "name": "cid",
          "type": "string"
        }
      ],
      "name": "tokenCidToTokenID",
      "outputs": [
        {
          "internalType": "uint256",
          "name": "",
          "type": "uint256"
        }
      ],
      "stateMutability": "pure",
      "type": "function"
    },
    {
      "inputs": [
        {
          "internalType": "uint256",
          "name": "tokenId",
          "type": "uint256"
        }
      ],
      "name": "tokenURI",
      "outputs": [
        {
          "internalType": "string",
          "name": "",
          "type": "string"
        }
      ],
      "stateMutability": "view",
      "type": "function"
    },
    {
      "inputs": [
        {
          "internalType": "address",
          "name": "from",
          "type": "address"
        },
        {
          "internalType": "address",
          "name": "to",
          "type": "address"
        },
        {
          "internalType": "uint256",
          "name": "tokenId",
          "type": "uint256"
        }
      ],
      "name": "transferFrom",
      "outputs": [],
      "stateMutability": "nonpayable",
      "type": "function"
    },
    {
      "inputs": [
        {
          "internalType": "address",
          "name": "newAddress",
          "type": "address"
        }
      ],
      "name": "updateMarketplaceAddress",
      "outputs": [],
      "stateMutability": "nonpayable",
      "type": "function"
    },
    {
      "inputs": [
        {
          "internalType": "uint256",
          "name": "tokenId",
          "type": "uint256"
        },
        {
          "internalType": "address",
          "name": "newRoyaltyReceiver",
          "type": "address"
        }
      ],
      "name": "updateRoyaltyReceiver",
      "outputs": [],
      "stateMutability": "nonpayable",
      "type": "function"
    }
  ],
  "bytecode": "0x60806040523480156200001157600080fd5b5060408051808201825260088152672a30b632b73a34b960c11b60208083019182528351808501909452600384526215105360ea1b9084015281519192916200005d916000916200015c565b508051620000739060019060208401906200015c565b506200008591506000905033620000b7565b620000b17f9f2df0fed2c77648de5860a4cc508cd0818c85b8b8a1ab4ceeef8d981c8956a633620000b7565b6200023f565b60008281526007602090815260408083206001600160a01b038516845290915290205460ff16620001585760008281526007602090815260408083206001600160a01b03851684529091529020805460ff19166001179055620001173390565b6001600160a01b0316816001600160a01b0316837f2f8788117e7eff1d82e926ec794901d17c78024a50270940304540a733656f0d60405160405180910390a45b5050565b8280546200016a9062000202565b90600052602060002090601f0160209004810192826200018e5760008555620001d9565b82601f10620001a957805160ff1916838001178555620001d9565b82800160010185558215620001d9579182015b82811115620001d9578251825591602001919060010190620001bc565b50620001e7929150620001eb565b5090565b5b80821115620001e75760008155600101620001ec565b600181811c908216806200021757607f821691505b602082108114156200023957634e487b7160e01b600052602260045260246000fd5b50919050565b6120c4806200024f6000396000f3fe608060405234801561001057600080fd5b50600436106101735760003560e01c806370a08231116100de578063b88d4fde11610097578063d547741f11610071578063d547741f14610373578063e4ace31a14610386578063e985e9c514610399578063fa8509c8146103ac57600080fd5b8063b88d4fde14610326578063c87b56dd14610339578063d53913931461034c57600080fd5b806370a08231146102ca5780638e5dca65146102dd57806391d14854146102f057806395d89b4114610303578063a217fddf1461030b578063a22cb4651461031357600080fd5b80632a55205a116101305780632a55205a146102395780632f2ff15d1461026b578063354c85aa1461027e57806336568abe1461029157806342842e0e146102a45780636352211e146102b757600080fd5b806301ffc9a71461017857806306fdde03146101a0578063081812fc146101b5578063095ea7b3146101e057806323b872dd146101f5578063248a9ca314610208575b600080fd5b61018b610186366004611cb9565b6103bf565b60405190151581526020015b60405180910390f35b6101a86103d0565b6040516101979190611e6e565b6101c86101c3366004611c7f565b610462565b6040516001600160a01b039091168152602001610197565b6101f36101ee366004611c56565b6104ef565b005b6101f3610203366004611b0c565b610605565b61022b610216366004611c7f565b60009081526007602052604090206001015490565b604051908152602001610197565b61024c610247366004611d24565b610636565b604080516001600160a01b039093168352602083019190915201610197565b6101f3610279366004611c97565b6106d6565b6101f361028c366004611c97565b6106fc565b6101f361029f366004611c97565b61076d565b6101f36102b2366004611b0c565b6107eb565b6101c86102c5366004611c7f565b610806565b61022b6102d8366004611ac9565b61087d565b61022b6102eb366004611cf1565b610904565b61018b6102fe366004611c97565b610935565b6101a8610960565b61022b600081565b6101f3610321366004611bc0565b61096f565b6101f3610334366004611b47565b61097a565b6101a8610347366004611c7f565b6109b2565b61022b7f9f2df0fed2c77648de5860a4cc508cd0818c85b8b8a1ab4ceeef8d981c8956a681565b6101f3610381366004611c97565b610b38565b6101f3610394366004611ac9565b610b5e565b61018b6103a7366004611ae3565b610b8d565b6101f36103ba366004611bfa565b610bd8565b60006103ca82610c35565b92915050565b6060600080546103df90611fc9565b80601f016020809104026020016040519081016040528092919081815260200182805461040b90611fc9565b80156104585780601f1061042d57610100808354040283529160200191610458565b820191906000526020600020905b81548152906001019060200180831161043b57829003601f168201915b5050505050905090565b600061046d82610c5a565b6104d35760405162461bcd60e51b815260206004820152602c60248201527f4552433732313a20617070726f76656420717565727920666f72206e6f6e657860448201526b34b9ba32b73a103a37b5b2b760a11b60648201526084015b60405180910390fd5b506000908152600460205260409020546001600160a01b031690565b60006104fa82610806565b9050806001600160a01b0316836001600160a01b031614156105685760405162461bcd60e51b815260206004820152602160248201527f4552433732313a20617070726f76616c20746f2063757272656e74206f776e656044820152603960f91b60648201526084016104ca565b336001600160a01b038216148061058457506105848133610b8d565b6105f65760405162461bcd60e51b815260206004820152603860248201527f4552433732313a20617070726f76652063616c6c6572206973206e6f74206f7760448201527f6e6572206e6f7220617070726f76656420666f7220616c6c000000000000000060648201526084016104ca565b6106008383610c77565b505050565b61060f3382610ce5565b61062b5760405162461bcd60e51b81526004016104ca90611ed3565b610600838383610da7565b60008281526008602052604081205481906001600160a01b031661069c5760405162461bcd60e51b815260206004820152601b60248201527f4e6f20726f79616c747920696e666f20666f722061646472657373000000000060448201526064016104ca565b6000848152600860205260409020546001600160a01b0316915060646106c3600a85611f50565b6106cd9190611f3c565b90509250929050565b6000828152600760205260409020600101546106f28133610f47565b6106008383610fab565b6000828152600860205260409020546001600160a01b03163381146107635760405162461bcd60e51b815260206004820152601c60248201527f526f79616c7479207265636569766572206d757374207570646174650000000060448201526064016104ca565b6106008383611031565b6001600160a01b03811633146107dd5760405162461bcd60e51b815260206004820152602f60248201527f416363657373436f6e74726f6c3a2063616e206f6e6c792072656e6f756e636560448201526e103937b632b9903337b91039b2b63360891b60648201526084016104ca565b6107e782826110a7565b5050565b6106008383836040518060200160405280600081525061097a565b6000818152600260205260408120546001600160a01b0316806103ca5760405162461bcd60e51b815260206004820152602960248201527f4552433732313a206f776e657220717565727920666f72206e6f6e657869737460448201526832b73a103a37b5b2b760b91b60648201526084016104ca565b60006001600160a01b0382166108e85760405162461bcd60e51b815260206004820152602a60248201527f4552433732313a2062616c616e636520717565727920666f7220746865207a65604482015269726f206164647265737360b01b60648201526084016104ca565b506001600160a01b031660009081526003602052604090205490565b6000816040516020016109179190611d71565b60408051601f19818403018152919052805160209091012092915050565b60009182526007602090815260408084206001600160a01b0393909316845291905290205460ff1690565b6060600180546103df90611fc9565b6107e733838361110e565b6109843383610ce5565b6109a05760405162461bcd60e51b81526004016104ca90611ed3565b6109ac848484846111dd565b50505050565b60606109bd82610c5a565b610a235760405162461bcd60e51b815260206004820152603160248201527f45524337323155524953746f726167653a2055524920717565727920666f72206044820152703737b732bc34b9ba32b73a103a37b5b2b760791b60648201526084016104ca565b60008281526006602052604081208054610a3c90611fc9565b80601f0160208091040260200160405190810160405280929190818152602001828054610a6890611fc9565b8015610ab55780601f10610a8a57610100808354040283529160200191610ab5565b820191906000526020600020905b815481529060010190602001808311610a9857829003601f168201915b505050505090506000610ae2604080518082019091526007815266697066733a2f2f60c81b602082015290565b9050805160001415610af5575092915050565b815115610b27578082604051602001610b0f929190611d8d565b60405160208183030381529060405292505050919050565b610b3084611210565b949350505050565b600082815260076020526040902060010154610b548133610f47565b61060083836110a7565b6000610b6a8133610f47565b50600980546001600160a01b0319166001600160a01b0392909216919091179055565b6009546000906001600160a01b0383811691161480610bd157506001600160a01b0380841660009081526005602090815260408083209386168352929052205460ff165b9392505050565b7f9f2df0fed2c77648de5860a4cc508cd0818c85b8b8a1ab4ceeef8d981c8956a6610c038133610f47565b6000610c0e84610904565b9050610c1a85826112f6565b610c248185611310565b610c2e8184611031565b5050505050565b60006001600160e01b0319821663152a902d60e11b14806103ca57506103ca8261139b565b6000908152600260205260409020546001600160a01b0316151590565b600081815260046020526040902080546001600160a01b0319166001600160a01b0384169081179091558190610cac82610806565b6001600160a01b03167f8c5be1e5ebec7d5bd14f71427d1e84f3dd0314c0f7b2291e5b200ac8c7c3b92560405160405180910390a45050565b6000610cf082610c5a565b610d515760405162461bcd60e51b815260206004820152602c60248201527f4552433732313a206f70657261746f7220717565727920666f72206e6f6e657860448201526b34b9ba32b73a103a37b5b2b760a11b60648201526084016104ca565b6000610d5c83610806565b9050806001600160a01b0316846001600160a01b03161480610d975750836001600160a01b0316610d8c84610462565b6001600160a01b0316145b80610b305750610b308185610b8d565b826001600160a01b0316610dba82610806565b6001600160a01b031614610e225760405162461bcd60e51b815260206004820152602960248201527f4552433732313a207472616e73666572206f6620746f6b656e2074686174206960448201526839903737ba1037bbb760b91b60648201526084016104ca565b6001600160a01b038216610e845760405162461bcd60e51b8152602060048201526024808201527f4552433732313a207472616e7366657220746f20746865207a65726f206164646044820152637265737360e01b60648201526084016104ca565b610e8f600082610c77565b6001600160a01b0383166000908152600360205260408120805460019290610eb8908490611f6f565b90915550506001600160a01b0382166000908152600360205260408120805460019290610ee6908490611f24565b909155505060008181526002602052604080822080546001600160a01b0319166001600160a01b0386811691821790925591518493918716917fddf252ad1be2c89b69c2b068fc378daa952ba7f163c4a11628f55a4df523b3ef91a4505050565b610f518282610935565b6107e757610f69816001600160a01b031660146113c0565b610f748360206113c0565b604051602001610f85929190611dbc565b60408051601f198184030181529082905262461bcd60e51b82526104ca91600401611e6e565b610fb58282610935565b6107e75760008281526007602090815260408083206001600160a01b03851684529091529020805460ff19166001179055610fed3390565b6001600160a01b0316816001600160a01b0316837f2f8788117e7eff1d82e926ec794901d17c78024a50270940304540a733656f0d60405160405180910390a45050565b60008281526008602090815260409182902080546001600160a01b031981166001600160a01b0386811691821790935584519290911680835292820152918201849052907f971bbbcaa216717fc665055dd5772bf872f40f18475942b07c7b48594b662aa49060600160405180910390a1505050565b6110b18282610935565b156107e75760008281526007602090815260408083206001600160a01b0385168085529252808320805460ff1916905551339285917ff6391f5c32d9c69d2a47ea670b442974b53935d1edc7fd64eb21e047a839171b9190a45050565b816001600160a01b0316836001600160a01b031614156111705760405162461bcd60e51b815260206004820152601960248201527f4552433732313a20617070726f766520746f2063616c6c65720000000000000060448201526064016104ca565b6001600160a01b03838116600081815260056020908152604080832094871680845294825291829020805460ff191686151590811790915591519182527f17307eab39ab6107e8899845ad3d59bd9653f200f220920489ca2b5937696c31910160405180910390a3505050565b6111e8848484610da7565b6111f4848484846115a2565b6109ac5760405162461bcd60e51b81526004016104ca90611e81565b606061121b82610c5a565b61127f5760405162461bcd60e51b815260206004820152602f60248201527f4552433732314d657461646174613a2055524920717565727920666f72206e6f60448201526e3732bc34b9ba32b73a103a37b5b2b760891b60648201526084016104ca565b60006112a5604080518082019091526007815266697066733a2f2f60c81b602082015290565b905060008151116112c55760405180602001604052806000815250610bd1565b806112cf846116af565b6040516020016112e0929190611d8d565b6040516020818303038152906040529392505050565b6107e78282604051806020016040528060008152506117c9565b61131982610c5a565b61137c5760405162461bcd60e51b815260206004820152602e60248201527f45524337323155524953746f726167653a2055524920736574206f66206e6f6e60448201526d32bc34b9ba32b73a103a37b5b2b760911b60648201526084016104ca565b600082815260066020908152604090912082516106009284019061197f565b60006001600160e01b03198216637965db0b60e01b14806103ca57506103ca826117fc565b606060006113cf836002611f50565b6113da906002611f24565b67ffffffffffffffff81111561140057634e487b7160e01b600052604160045260246000fd5b6040519080825280601f01601f19166020018201604052801561142a576020820181803683370190505b509050600360fc1b8160008151811061145357634e487b7160e01b600052603260045260246000fd5b60200101906001600160f81b031916908160001a905350600f60fb1b8160018151811061149057634e487b7160e01b600052603260045260246000fd5b60200101906001600160f81b031916908160001a90535060006114b4846002611f50565b6114bf906001611f24565b90505b6001811115611553576f181899199a1a9b1b9c1cb0b131b232b360811b85600f166010811061150157634e487b7160e01b600052603260045260246000fd5b1a60f81b82828151811061152557634e487b7160e01b600052603260045260246000fd5b60200101906001600160f81b031916908160001a90535060049490941c9361154c81611fb2565b90506114c2565b508315610bd15760405162461bcd60e51b815260206004820181905260248201527f537472696e67733a20686578206c656e67746820696e73756666696369656e7460448201526064016104ca565b60006001600160a01b0384163b156116a457604051630a85bd0160e11b81526001600160a01b0385169063150b7a02906115e6903390899088908890600401611e31565b602060405180830381600087803b15801561160057600080fd5b505af1925050508015611630575060408051601f3d908101601f1916820190925261162d91810190611cd5565b60015b61168a573d80801561165e576040519150601f19603f3d011682016040523d82523d6000602084013e611663565b606091505b5080516116825760405162461bcd60e51b81526004016104ca90611e81565b805181602001fd5b6001600160e01b031916630a85bd0160e11b149050610b30565b506001949350505050565b6060816116d35750506040805180820190915260018152600360fc1b602082015290565b8160005b81156116fd57806116e781612004565b91506116f69050600a83611f3c565b91506116d7565b60008167ffffffffffffffff81111561172657634e487b7160e01b600052604160045260246000fd5b6040519080825280601f01601f191660200182016040528015611750576020820181803683370190505b5090505b8415610b3057611765600183611f6f565b9150611772600a8661201f565b61177d906030611f24565b60f81b8183815181106117a057634e487b7160e01b600052603260045260246000fd5b60200101906001600160f81b031916908160001a9053506117c2600a86611f3c565b9450611754565b6117d3838361184c565b6117e060008484846115a2565b6106005760405162461bcd60e51b81526004016104ca90611e81565b60006001600160e01b031982166380ac58cd60e01b148061182d57506001600160e01b03198216635b5e139f60e01b145b806103ca57506301ffc9a760e01b6001600160e01b03198316146103ca565b6001600160a01b0382166118a25760405162461bcd60e51b815260206004820181905260248201527f4552433732313a206d696e7420746f20746865207a65726f206164647265737360448201526064016104ca565b6118ab81610c5a565b156118f85760405162461bcd60e51b815260206004820152601c60248201527f4552433732313a20746f6b656e20616c7265616479206d696e7465640000000060448201526064016104ca565b6001600160a01b0382166000908152600360205260408120805460019290611921908490611f24565b909155505060008181526002602052604080822080546001600160a01b0319166001600160a01b03861690811790915590518392907fddf252ad1be2c89b69c2b068fc378daa952ba7f163c4a11628f55a4df523b3ef908290a45050565b82805461198b90611fc9565b90600052602060002090601f0160209004810192826119ad57600085556119f3565b82601f106119c657805160ff19168380011785556119f3565b828001600101855582156119f3579182015b828111156119f35782518255916020019190600101906119d8565b506119ff929150611a03565b5090565b5b808211156119ff5760008155600101611a04565b600067ffffffffffffffff80841115611a3357611a3361205f565b604051601f8501601f19908116603f01168101908282118183101715611a5b57611a5b61205f565b81604052809350858152868686011115611a7457600080fd5b858560208301376000602087830101525050509392505050565b80356001600160a01b0381168114611aa557600080fd5b919050565b600082601f830112611aba578081fd5b610bd183833560208501611a18565b600060208284031215611ada578081fd5b610bd182611a8e565b60008060408385031215611af5578081fd5b611afe83611a8e565b91506106cd60208401611a8e565b600080600060608486031215611b20578081fd5b611b2984611a8e565b9250611b3760208501611a8e565b9150604084013590509250925092565b60008060008060808587031215611b5c578081fd5b611b6585611a8e565b9350611b7360208601611a8e565b925060408501359150606085013567ffffffffffffffff811115611b95578182fd5b8501601f81018713611ba5578182fd5b611bb487823560208401611a18565b91505092959194509250565b60008060408385031215611bd2578182fd5b611bdb83611a8e565b915060208301358015158114611bef578182fd5b809150509250929050565b600080600060608486031215611c0e578283fd5b611c1784611a8e565b9250602084013567ffffffffffffffff811115611c32578283fd5b611c3e86828701611aaa565b925050611c4d60408501611a8e565b90509250925092565b60008060408385031215611c68578182fd5b611c7183611a8e565b946020939093013593505050565b600060208284031215611c90578081fd5b5035919050565b60008060408385031215611ca9578182fd5b823591506106cd60208401611a8e565b600060208284031215611cca578081fd5b8135610bd181612075565b600060208284031215611ce6578081fd5b8151610bd181612075565b600060208284031215611d02578081fd5b813567ffffffffffffffff811115611d18578182fd5b610b3084828501611aaa565b60008060408385031215611d36578182fd5b50508035926020909101359150565b60008151808452611d5d816020860160208601611f86565b601f01601f19169290920160200192915050565b60008251611d83818460208701611f86565b9190910192915050565b60008351611d9f818460208801611f86565b835190830190611db3818360208801611f86565b01949350505050565b7f416363657373436f6e74726f6c3a206163636f756e7420000000000000000000815260008351611df4816017850160208801611f86565b7001034b99036b4b9b9b4b733903937b6329607d1b6017918401918201528351611e25816028840160208801611f86565b01602801949350505050565b6001600160a01b0385811682528416602082015260408101839052608060608201819052600090611e6490830184611d45565b9695505050505050565b602081526000610bd16020830184611d45565b60208082526032908201527f4552433732313a207472616e7366657220746f206e6f6e20455243373231526560408201527131b2b4bb32b91034b6b83632b6b2b73a32b960711b606082015260800190565b60208082526031908201527f4552433732313a207472616e736665722063616c6c6572206973206e6f74206f6040820152701ddb995c881b9bdc88185c1c1c9bdd9959607a1b606082015260800190565b60008219821115611f3757611f37612033565b500190565b600082611f4b57611f4b612049565b500490565b6000816000190483118215151615611f6a57611f6a612033565b500290565b600082821015611f8157611f81612033565b500390565b60005b83811015611fa1578181015183820152602001611f89565b838111156109ac5750506000910152565b600081611fc157611fc1612033565b506000190190565b600181811c90821680611fdd57607f821691505b60208210811415611ffe57634e487b7160e01b600052602260045260246000fd5b50919050565b600060001982141561201857612018612033565b5060010190565b60008261202e5761202e612049565b500690565b634e487b7160e01b600052601160045260246000fd5b634e487b7160e01b600052601260045260246000fd5b634e487b7160e01b600052604160045260246000fd5b6001600160e01b03198116811461208b57600080fd5b5056fea2646970667358221220b55e2656f0e8ed5700c2934a1360a25a9ed6c8e5a807fe1d9f1c7534559aec1464736f6c63430008040033",
  "linkReferences": {},
  "deployedLinkReferences": {}
}